{
    "contractName": "BridgedBitclout",
    "abi": [
        {
            "inputs": [
                {
                    "internalType": "address",
                    "name": "_dev",
                    "type": "address"
                },
                {
                    "internalType": "uint256",
                    "name": "_bridgeFee",
                    "type": "uint256"
                },
                {
                    "internalType": "uint256",
                    "name": "_burnFee",
                    "type": "uint256"
                }
            ],
            "stateMutability": "nonpayable",
            "type": "constructor"
        },
        {
            "anonymous": false,
            "inputs": [
                {
                    "indexed": true,
                    "internalType": "address",
                    "name": "owner",
                    "type": "address"
                },
                {
                    "indexed": true,
                    "internalType": "address",
                    "name": "spender",
                    "type": "address"
                },
                {
                    "indexed": false,
                    "internalType": "uint256",
                    "name": "value",
                    "type": "uint256"
                }
            ],
            "name": "Approval",
            "type": "event"
        },
        {
            "anonymous": false,
            "inputs": [
                {
                    "indexed": false,
                    "internalType": "address",
                    "name": "_user",
                    "type": "address"
                },
                {
                    "indexed": false,
                    "internalType": "string",
                    "name": "_payload",
                    "type": "string"
                }
            ],
            "name": "BridgeRequest",
            "type": "event"
        },
        {
            "anonymous": false,
            "inputs": [
                {
                    "indexed": false,
                    "internalType": "string",
                    "name": "_bcltKey",
                    "type": "string"
                },
                {
                    "indexed": false,
                    "internalType": "uint256",
                    "name": "_amount",
                    "type": "uint256"
                }
            ],
            "name": "Burn",
            "type": "event"
        },
        {
            "anonymous": false,
            "inputs": [
                {
                    "indexed": true,
                    "internalType": "address",
                    "name": "from",
                    "type": "address"
                },
                {
                    "indexed": true,
                    "internalType": "address",
                    "name": "to",
                    "type": "address"
                },
                {
                    "indexed": false,
                    "internalType": "uint256",
                    "name": "value",
                    "type": "uint256"
                }
            ],
            "name": "Transfer",
            "type": "event"
        },
        {
            "inputs": [
                {
                    "internalType": "address",
                    "name": "owner",
                    "type": "address"
                },
                {
                    "internalType": "address",
                    "name": "spender",
                    "type": "address"
                }
            ],
            "name": "allowance",
            "outputs": [
                {
                    "internalType": "uint256",
                    "name": "",
                    "type": "uint256"
                }
            ],
            "stateMutability": "view",
            "type": "function"
        },
        {
            "inputs": [
                {
                    "internalType": "address",
                    "name": "spender",
                    "type": "address"
                },
                {
                    "internalType": "uint256",
                    "name": "amount",
                    "type": "uint256"
                }
            ],
            "name": "approve",
            "outputs": [
                {
                    "internalType": "bool",
                    "name": "",
                    "type": "bool"
                }
            ],
            "stateMutability": "nonpayable",
            "type": "function"
        },
        {
            "inputs": [
                {
                    "internalType": "address",
                    "name": "account",
                    "type": "address"
                }
            ],
            "name": "balanceOf",
            "outputs": [
                {
                    "internalType": "uint256",
                    "name": "",
                    "type": "uint256"
                }
            ],
            "stateMutability": "view",
            "type": "function"
        },
        {
            "inputs": [
                {
                    "internalType": "string",
                    "name": "_bcltKey",
                    "type": "string"
                }
            ],
            "name": "bcltToEthAddress",
            "outputs": [
                {
                    "internalType": "address",
                    "name": "_userAddress",
                    "type": "address"
                }
            ],
            "stateMutability": "view",
            "type": "function"
        },
        {
            "inputs": [],
            "name": "bridgeFee",
            "outputs": [
                {
                    "internalType": "uint256",
                    "name": "",
                    "type": "uint256"
                }
            ],
            "stateMutability": "view",
            "type": "function"
        },
        {
            "inputs": [
                {
                    "internalType": "string",
                    "name": "_payload",
                    "type": "string"
                }
            ],
            "name": "bridgeRequest",
            "outputs": [],
            "stateMutability": "payable",
            "type": "function"
        },
        {
            "inputs": [
                {
                    "internalType": "string",
                    "name": "_bcltKey",
                    "type": "string"
                },
                {
                    "internalType": "address",
                    "name": "_ethAddress",
                    "type": "address"
                }
            ],
            "name": "bridgeUser",
            "outputs": [],
            "stateMutability": "nonpayable",
            "type": "function"
        },
        {
            "inputs": [
                {
                    "internalType": "uint256",
                    "name": "_amount",
                    "type": "uint256"
                }
            ],
            "name": "burn",
            "outputs": [],
            "stateMutability": "payable",
            "type": "function"
        },
        {
            "inputs": [],
            "name": "burnFee",
            "outputs": [
                {
                    "internalType": "uint256",
                    "name": "",
                    "type": "uint256"
                }
            ],
            "stateMutability": "view",
            "type": "function"
        },
        {
            "inputs": [],
            "name": "decimals",
            "outputs": [
                {
                    "internalType": "uint8",
                    "name": "",
                    "type": "uint8"
                }
            ],
            "stateMutability": "pure",
            "type": "function"
        },
        {
            "inputs": [
                {
                    "internalType": "address",
                    "name": "spender",
                    "type": "address"
                },
                {
                    "internalType": "uint256",
                    "name": "subtractedValue",
                    "type": "uint256"
                }
            ],
            "name": "decreaseAllowance",
            "outputs": [
                {
                    "internalType": "bool",
                    "name": "",
                    "type": "bool"
                }
            ],
            "stateMutability": "nonpayable",
            "type": "function"
        },
        {
            "inputs": [
                {
                    "internalType": "string",
                    "name": "_account",
                    "type": "string"
                }
            ],
            "name": "getBalance",
            "outputs": [
                {
                    "internalType": "uint256",
                    "name": "_balance",
                    "type": "uint256"
                }
            ],
            "stateMutability": "view",
            "type": "function"
        },
        {
            "inputs": [
                {
                    "internalType": "address",
                    "name": "spender",
                    "type": "address"
                },
                {
                    "internalType": "uint256",
                    "name": "addedValue",
                    "type": "uint256"
                }
            ],
            "name": "increaseAllowance",
            "outputs": [
                {
                    "internalType": "bool",
                    "name": "",
                    "type": "bool"
                }
            ],
            "stateMutability": "nonpayable",
            "type": "function"
        },
        {
            "inputs": [
                {
                    "internalType": "string",
                    "name": "_bcltKey",
                    "type": "string"
                },
                {
                    "internalType": "uint256",
                    "name": "_amount",
                    "type": "uint256"
                }
            ],
            "name": "mint",
            "outputs": [],
            "stateMutability": "nonpayable",
            "type": "function"
        },
        {
            "inputs": [],
            "name": "name",
            "outputs": [
                {
                    "internalType": "string",
                    "name": "",
                    "type": "string"
                }
            ],
            "stateMutability": "view",
            "type": "function"
        },
        {
            "inputs": [],
            "name": "symbol",
            "outputs": [
                {
                    "internalType": "string",
                    "name": "",
                    "type": "string"
                }
            ],
            "stateMutability": "view",
            "type": "function"
        },
        {
            "inputs": [],
            "name": "totalSupply",
            "outputs": [
                {
                    "internalType": "uint256",
                    "name": "",
                    "type": "uint256"
                }
            ],
            "stateMutability": "view",
            "type": "function"
        },
        {
            "inputs": [
                {
                    "internalType": "address",
                    "name": "recipient",
                    "type": "address"
                },
                {
                    "internalType": "uint256",
                    "name": "amount",
                    "type": "uint256"
                }
            ],
            "name": "transfer",
            "outputs": [
                {
                    "internalType": "bool",
                    "name": "",
                    "type": "bool"
                }
            ],
            "stateMutability": "nonpayable",
            "type": "function"
        },
        {
            "inputs": [
                {
                    "internalType": "address",
                    "name": "_newDev",
                    "type": "address"
                }
            ],
            "name": "transferDev",
            "outputs": [],
            "stateMutability": "nonpayable",
            "type": "function"
        },
        {
            "inputs": [
                {
                    "internalType": "address",
                    "name": "sender",
                    "type": "address"
                },
                {
                    "internalType": "address",
                    "name": "recipient",
                    "type": "address"
                },
                {
                    "internalType": "uint256",
                    "name": "amount",
                    "type": "uint256"
                }
            ],
            "name": "transferFrom",
            "outputs": [
                {
                    "internalType": "bool",
                    "name": "",
                    "type": "bool"
                }
            ],
            "stateMutability": "nonpayable",
            "type": "function"
        },
        {
            "inputs": [],
            "name": "unbridgeUser",
            "outputs": [],
            "stateMutability": "nonpayable",
            "type": "function"
        },
        {
            "inputs": [
                {
                    "internalType": "string",
                    "name": "_bcltAddress",
                    "type": "string"
                }
            ],
            "name": "userBridged",
            "outputs": [
                {
                    "internalType": "bool",
                    "name": "_bridged",
                    "type": "bool"
                }
            ],
            "stateMutability": "view",
            "type": "function"
        }
    ],
    "bytecode": "60806040523480156200001157600080fd5b50604051620018b8380380620018b8833981016040819052620000349162000177565b604080518082018252600f81526e109c9a5919d959109a5d18db1bdd5d608a1b602080830191825283518085019094526005845264189090d31560da1b9084015281519192916200008891600391620000d1565b5080516200009e906004906020840190620000d1565b5050600580546001600160a01b0319166001600160a01b03959095169490941790935560089190915560095550620001f7565b828054620000df90620001ba565b90600052602060002090601f0160209004810192826200010357600085556200014e565b82601f106200011e57805160ff19168380011785556200014e565b828001600101855582156200014e579182015b828111156200014e57825182559160200191906001019062000131565b506200015c92915062000160565b5090565b5b808211156200015c576000815560010162000161565b6000806000606084860312156200018c578283fd5b83516001600160a01b0381168114620001a3578384fd5b602085015160409095015190969495509392505050565b600281046001821680620001cf57607f821691505b60208210811415620001f157634e487b7160e01b600052602260045260246000fd5b50919050565b6116b180620002076000396000f3fe6080604052600436106101355760003560e01c80636213ee1d116100ab578063a9059cbb1161006f578063a9059cbb1461032a578063daddca381461034a578063dd62ed3e1461035d578063e211d72d1461037d578063eb5249af1461039d578063fce589d8146103ca57610135565b80636213ee1d146102ab57806370a08231146102c057806382b12dd7146102e057806395d89b41146102f5578063a457c2d71461030a57610135565b8063313ce567116100fd578063313ce567146101f6578063332ca4f21461021857806339509351146102385780633a51d2461461025857806342966c68146102785780635b2e99c81461028b57610135565b8063056b01ce1461013a57806306fdde031461015c578063095ea7b31461018757806318160ddd146101b457806323b872dd146101d6575b600080fd5b34801561014657600080fd5b5061015a61015536600461105e565b6103df565b005b34801561016857600080fd5b50610171610448565b60405161017e91906111b3565b60405180910390f35b34801561019357600080fd5b506101a76101a2366004610fb7565b6104da565b60405161017e91906111a8565b3480156101c057600080fd5b506101c96104f7565b60405161017e919061159e565b3480156101e257600080fd5b506101a76101f1366004610f7c565b6104fd565b34801561020257600080fd5b5061020b610594565b60405161017e91906115a7565b34801561022457600080fd5b5061015a610233366004610f29565b610599565b34801561024457600080fd5b506101a7610253366004610fb7565b6105e5565b34801561026457600080fd5b506101c9610273366004610fe0565b610634565b61015a6102863660046110a1565b61066f565b34801561029757600080fd5b5061015a6102a636600461101b565b6106e6565b3480156102b757600080fd5b5061015a61077e565b3480156102cc57600080fd5b506101c96102db366004610f29565b6108af565b3480156102ec57600080fd5b506101c96108ca565b34801561030157600080fd5b506101716108d0565b34801561031657600080fd5b506101a7610325366004610fb7565b6108df565b34801561033657600080fd5b506101a7610345366004610fb7565b61095a565b61015a610358366004610fe0565b61096e565b34801561036957600080fd5b506101c9610378366004610f4a565b6109c1565b34801561038957600080fd5b506101a7610398366004610fe0565b6109ec565b3480156103a957600080fd5b506103bd6103b8366004610fe0565b610a35565b60405161017e9190611170565b3480156103d657600080fd5b506101c9610a67565b6005546001600160a01b031633146104125760405162461bcd60e51b815260040161040990611294565b60405180910390fd5b61044460078360405161042591906110e5565b908152604051908190036020019020546001600160a01b031682610a6d565b5050565b60606003805461045790611614565b80601f016020809104026020016040519081016040528092919081815260200182805461048390611614565b80156104d05780601f106104a5576101008083540402835291602001916104d0565b820191906000526020600020905b8154815290600101906020018083116104b357829003601f168201915b5050505050905090565b60006104ee6104e7610b2d565b8484610b31565b50600192915050565b60025490565b600061050a848484610be5565b6001600160a01b03841660009081526001602052604081208161052b610b2d565b6001600160a01b03166001600160a01b031681526020019081526020016000205490508281101561056e5760405162461bcd60e51b8152600401610409906113e5565b6105898561057a610b2d565b61058486856115cd565b610b31565b506001949350505050565b600990565b6005546001600160a01b031633146105c35760405162461bcd60e51b815260040161040990611294565b600580546001600160a01b0319166001600160a01b0392909216919091179055565b60006104ee6105f2610b2d565b848460016000610600610b2d565b6001600160a01b03908116825260208083019390935260409182016000908120918b168152925290205461058491906115b5565b600061066760078360405161064991906110e5565b908152604051908190036020019020546001600160a01b03166108af565b90505b919050565b6009543410156106915760405162461bcd60e51b8152600401610409906114f7565b61069b3382610d0d565b336000908152600660205260409081902090517fa0237080cf48d9e1fbb9ef1f82e33b11170d047b2b540a73b457d0916d53ee99916106db9184906111c6565b60405180910390a150565b6005546001600160a01b031633146107105760405162461bcd60e51b815260040161040990611294565b6001600160a01b0381166000908152600660209081526040909120835161073992850190610df8565b508060078360405161074b91906110e5565b90815260405190819003602001902080546001600160a01b03929092166001600160a01b03199092169190911790555050565b3360009081526006602052604090208054610820919061079d90611614565b80601f01602080910402602001604051908101604052809291908181526020018280546107c990611614565b80156108165780601f106107eb57610100808354040283529160200191610816565b820191906000526020600020905b8154815290600101906020018083116107f957829003601f168201915b50505050506109ec565b61083c5760405162461bcd60e51b815260040161040990611348565b33600090815260066020526040808220905160079161085a91611101565b908152604080516020928190038301812080546001600160a01b0319166001600160a01b03959095169490941790935581830180825260008085523381526006909352912091516108ac929190610df8565b50565b6001600160a01b031660009081526020819052604090205490565b60085481565b60606004805461045790611614565b600080600160006108ee610b2d565b6001600160a01b039081168252602080830193909352604091820160009081209188168152925290205490508281101561093a5760405162461bcd60e51b815260040161040990611522565b610950610945610b2d565b8561058486856115cd565b5060019392505050565b60006104ee610967610b2d565b8484610be5565b6008543410156109905760405162461bcd60e51b8152600401610409906113b8565b7ff3a2b9d2f578ed48c6766414c7478bfb7fd0c435622a42fffc66107ba7b4dcf333826040516106db929190611184565b6001600160a01b03918216600090815260016020908152604080832093909416825291909152205490565b6000806001600160a01b0316600783604051610a0891906110e5565b908152604051908190036020019020546001600160a01b031614610a2d576001610667565b506000919050565b6000600782604051610a4791906110e5565b908152604051908190036020019020546001600160a01b03169050919050565b60095481565b6001600160a01b038216610a935760405162461bcd60e51b815260040161040990611567565b610a9f60008383610df3565b8060026000828254610ab191906115b5565b90915550506001600160a01b03821660009081526020819052604081208054839290610ade9084906115b5565b90915550506040516001600160a01b038316906000907fddf252ad1be2c89b69c2b068fc378daa952ba7f163c4a11628f55a4df523b3ef90610b2190859061159e565b60405180910390a35050565b3390565b6001600160a01b038316610b575760405162461bcd60e51b8152600401610409906114b3565b6001600160a01b038216610b7d5760405162461bcd60e51b815260040161040990611306565b6001600160a01b0380841660008181526001602090815260408083209487168084529490915290819020849055517f8c5be1e5ebec7d5bd14f71427d1e84f3dd0314c0f7b2291e5b200ac8c7c3b92590610bd890859061159e565b60405180910390a3505050565b6001600160a01b038316610c0b5760405162461bcd60e51b81526004016104099061146e565b6001600160a01b038216610c315760405162461bcd60e51b815260040161040990611251565b610c3c838383610df3565b6001600160a01b03831660009081526020819052604090205481811015610c755760405162461bcd60e51b815260040161040990611372565b610c7f82826115cd565b6001600160a01b038086166000908152602081905260408082209390935590851681529081208054849290610cb59084906115b5565b92505081905550826001600160a01b0316846001600160a01b03167fddf252ad1be2c89b69c2b068fc378daa952ba7f163c4a11628f55a4df523b3ef84604051610cff919061159e565b60405180910390a350505050565b6001600160a01b038216610d335760405162461bcd60e51b81526004016104099061142d565b610d3f82600083610df3565b6001600160a01b03821660009081526020819052604090205481811015610d785760405162461bcd60e51b8152600401610409906112c4565b610d8282826115cd565b6001600160a01b03841660009081526020819052604081209190915560028054849290610db09084906115cd565b90915550506040516000906001600160a01b038516907fddf252ad1be2c89b69c2b068fc378daa952ba7f163c4a11628f55a4df523b3ef90610bd890869061159e565b505050565b828054610e0490611614565b90600052602060002090601f016020900481019282610e265760008555610e6c565b82601f10610e3f57805160ff1916838001178555610e6c565b82800160010185558215610e6c579182015b82811115610e6c578251825591602001919060010190610e51565b50610e78929150610e7c565b5090565b5b80821115610e785760008155600101610e7d565b80356001600160a01b038116811461066a57600080fd5b600082601f830112610eb8578081fd5b813567ffffffffffffffff80821115610ed357610ed3611665565b604051601f8301601f191681016020018281118282101715610ef757610ef7611665565b604052828152848301602001861015610f0e578384fd5b82602086016020830137918201602001929092529392505050565b600060208284031215610f3a578081fd5b610f4382610e91565b9392505050565b60008060408385031215610f5c578081fd5b610f6583610e91565b9150610f7360208401610e91565b90509250929050565b600080600060608486031215610f90578081fd5b610f9984610e91565b9250610fa760208501610e91565b9150604084013590509250925092565b60008060408385031215610fc9578182fd5b610fd283610e91565b946020939093013593505050565b600060208284031215610ff1578081fd5b813567ffffffffffffffff811115611007578182fd5b61101384828501610ea8565b949350505050565b6000806040838503121561102d578182fd5b823567ffffffffffffffff811115611043578283fd5b61104f85828601610ea8565b925050610f7360208401610e91565b60008060408385031215611070578182fd5b823567ffffffffffffffff811115611086578283fd5b61109285828601610ea8565b95602094909401359450505050565b6000602082840312156110b2578081fd5b5035919050565b600081518084526110d18160208601602086016115e4565b601f01601f19169290920160200192915050565b600082516110f78184602087016115e4565b9190910192915050565b600080835461110f81611614565b60018281168015611127576001811461113857611164565b60ff19841687528287019450611164565b8786526020808720875b8581101561115b5781548a820152908401908201611142565b50505082870194505b50929695505050505050565b6001600160a01b0391909116815260200190565b6001600160a01b0383168152604060208201819052600090611013908301846110b9565b901515815260200190565b600060208252610f4360208301846110b9565b6000604082528084546111d881611614565b80604086015260606001808416600081146111fa576001811461120e5761123c565b60ff1985168884015260808801955061123c565b8987526020808820885b868110156112335781548b8201870152908401908201611218565b8a018501975050505b50505050506020929092019290925292915050565b60208082526023908201527f45524332303a207472616e7366657220746f20746865207a65726f206164647260408201526265737360e81b606082015260800190565b60208082526016908201527526bab9ba1031329031b0b63632b210313c903232bb1760511b604082015260600190565b60208082526022908201527f45524332303a206275726e20616d6f756e7420657863656564732062616c616e604082015261636560f01b606082015260800190565b60208082526022908201527f45524332303a20617070726f766520746f20746865207a65726f206164647265604082015261737360f01b606082015260800190565b60208082526010908201526f155cd95c88139bdd08109c9a5919d95960821b604082015260600190565b60208082526026908201527f45524332303a207472616e7366657220616d6f756e7420657863656564732062604082015265616c616e636560d01b606082015260800190565b60208082526013908201527224b73b30b634b210213934b233b2902332b29760691b604082015260600190565b60208082526028908201527f45524332303a207472616e7366657220616d6f756e74206578636565647320616040820152676c6c6f77616e636560c01b606082015260800190565b60208082526021908201527f45524332303a206275726e2066726f6d20746865207a65726f206164647265736040820152607360f81b606082015260800190565b60208082526025908201527f45524332303a207472616e736665722066726f6d20746865207a65726f206164604082015264647265737360d81b606082015260800190565b60208082526024908201527f45524332303a20617070726f76652066726f6d20746865207a65726f206164646040820152637265737360e01b606082015260800190565b60208082526011908201527024b73b30b634b210213ab937102332b29760791b604082015260600190565b60208082526025908201527f45524332303a2064656372656173656420616c6c6f77616e63652062656c6f77604082015264207a65726f60d81b606082015260800190565b6020808252601f908201527f45524332303a206d696e7420746f20746865207a65726f206164647265737300604082015260600190565b90815260200190565b60ff91909116815260200190565b600082198211156115c8576115c861164f565b500190565b6000828210156115df576115df61164f565b500390565b60005b838110156115ff5781810151838201526020016115e7565b8381111561160e576000848401525b50505050565b60028104600182168061162857607f821691505b6020821081141561164957634e487b7160e01b600052602260045260246000fd5b50919050565b634e487b7160e01b600052601160045260246000fd5b634e487b7160e01b600052604160045260246000fdfea26469706673582212200671dad1ec12a03ee24f0f6daa30048ab5ede926920bcb0fd74b355da33e097c64736f6c63430008000033",
    "sourcePath": "e:/BitcloutBridge/src/BridgedBitclout.sol",
    "compiler": {
        "name": "solc",
        "version": "0.8.0+commit.c7dfd78e"
    },
    "functionHashes": {
        "allowance(address,address)": "dd62ed3e",
        "approve(address,uint256)": "095ea7b3",
        "balanceOf(address)": "70a08231",
        "bcltToEthAddress(string)": "eb5249af",
        "bridgeFee()": "82b12dd7",
        "bridgeRequest(string)": "daddca38",
        "bridgeUser(string,address)": "5b2e99c8",
        "burn(uint256)": "42966c68",
        "burnFee()": "fce589d8",
        "decimals()": "313ce567",
        "decreaseAllowance(address,uint256)": "a457c2d7",
        "getBalance(string)": "3a51d246",
        "increaseAllowance(address,uint256)": "39509351",
        "mint(string,uint256)": "056b01ce",
        "name()": "06fdde03",
        "symbol()": "95d89b41",
        "totalSupply()": "18160ddd",
        "transfer(address,uint256)": "a9059cbb",
        "transferDev(address)": "332ca4f2",
        "transferFrom(address,address,uint256)": "23b872dd",
        "unbridgeUser()": "6213ee1d",
        "userBridged(string)": "e211d72d"
    },
    "gasEstimates": {
        "creation": {
            "codeDepositCost": "1161800",
            "executionCost": "infinite",
            "totalCost": "infinite"
        },
        "external": {
            "allowance(address,address)": "infinite",
            "approve(address,uint256)": "22651",
            "balanceOf(address)": "1318",
            "bcltToEthAddress(string)": "infinite",
            "bridgeFee()": "1095",
            "bridgeRequest(string)": "infinite",
            "bridgeUser(string,address)": "infinite",
            "burn(uint256)": "infinite",
            "burnFee()": "1160",
            "decimals()": "263",
            "decreaseAllowance(address,uint256)": "infinite",
            "getBalance(string)": "infinite",
            "increaseAllowance(address,uint256)": "infinite",
            "mint(string,uint256)": "infinite",
            "name()": "infinite",
            "symbol()": "infinite",
            "totalSupply()": "1118",
            "transfer(address,uint256)": "44556",
            "transferDev(address)": "22056",
            "transferFrom(address,address,uint256)": "infinite",
            "unbridgeUser()": "infinite",
            "userBridged(string)": "infinite"
        }
    }
}