{
    "contractName": "BridgedBitclout",
    "abi": [
        {
            "inputs": [
                {
                    "internalType": "address",
                    "name": "_operator",
                    "type": "address"
                },
                {
                    "internalType": "string",
                    "name": "_bcltKey",
                    "type": "string"
                },
                {
                    "internalType": "uint256",
                    "name": "_bridgeFee",
                    "type": "uint256"
                },
                {
                    "internalType": "uint256",
                    "name": "_mintFee",
                    "type": "uint256"
                },
                {
                    "internalType": "uint256",
                    "name": "_minimumBurn",
                    "type": "uint256"
                }
            ],
            "stateMutability": "nonpayable",
            "type": "constructor"
        },
        {
            "anonymous": false,
            "inputs": [
                {
                    "indexed": true,
                    "internalType": "address",
                    "name": "owner",
                    "type": "address"
                },
                {
                    "indexed": true,
                    "internalType": "address",
                    "name": "spender",
                    "type": "address"
                },
                {
                    "indexed": false,
                    "internalType": "uint256",
                    "name": "value",
                    "type": "uint256"
                }
            ],
            "name": "Approval",
            "type": "event"
        },
        {
            "anonymous": false,
            "inputs": [
                {
                    "indexed": false,
                    "internalType": "address",
                    "name": "_user",
                    "type": "address"
                },
                {
                    "indexed": false,
                    "internalType": "string",
                    "name": "_payload",
                    "type": "string"
                }
            ],
            "name": "BridgeRequest",
            "type": "event"
        },
        {
            "anonymous": false,
            "inputs": [
                {
                    "indexed": false,
                    "internalType": "string",
                    "name": "_bcltKey",
                    "type": "string"
                },
                {
                    "indexed": false,
                    "internalType": "uint256",
                    "name": "_amount",
                    "type": "uint256"
                }
            ],
            "name": "Burn",
            "type": "event"
        },
        {
            "anonymous": false,
            "inputs": [
                {
                    "indexed": false,
                    "internalType": "address",
                    "name": "account",
                    "type": "address"
                }
            ],
            "name": "Paused",
            "type": "event"
        },
        {
            "anonymous": false,
            "inputs": [
                {
                    "indexed": true,
                    "internalType": "address",
                    "name": "from",
                    "type": "address"
                },
                {
                    "indexed": true,
                    "internalType": "address",
                    "name": "to",
                    "type": "address"
                },
                {
                    "indexed": false,
                    "internalType": "uint256",
                    "name": "value",
                    "type": "uint256"
                }
            ],
            "name": "Transfer",
            "type": "event"
        },
        {
            "anonymous": false,
            "inputs": [
                {
                    "indexed": false,
                    "internalType": "address",
                    "name": "account",
                    "type": "address"
                }
            ],
            "name": "Unpaused",
            "type": "event"
        },
        {
            "inputs": [
                {
                    "internalType": "address",
                    "name": "owner",
                    "type": "address"
                },
                {
                    "internalType": "address",
                    "name": "spender",
                    "type": "address"
                }
            ],
            "name": "allowance",
            "outputs": [
                {
                    "internalType": "uint256",
                    "name": "",
                    "type": "uint256"
                }
            ],
            "stateMutability": "view",
            "type": "function"
        },
        {
            "inputs": [
                {
                    "internalType": "address",
                    "name": "spender",
                    "type": "address"
                },
                {
                    "internalType": "uint256",
                    "name": "amount",
                    "type": "uint256"
                }
            ],
            "name": "approve",
            "outputs": [
                {
                    "internalType": "bool",
                    "name": "",
                    "type": "bool"
                }
            ],
            "stateMutability": "nonpayable",
            "type": "function"
        },
        {
            "inputs": [
                {
                    "internalType": "address",
                    "name": "account",
                    "type": "address"
                }
            ],
            "name": "balanceOf",
            "outputs": [
                {
                    "internalType": "uint256",
                    "name": "",
                    "type": "uint256"
                }
            ],
            "stateMutability": "view",
            "type": "function"
        },
        {
            "inputs": [
                {
                    "internalType": "string",
                    "name": "_bcltKey",
                    "type": "string"
                }
            ],
            "name": "bcltToEthAddress",
            "outputs": [
                {
                    "internalType": "address",
                    "name": "_userAddress",
                    "type": "address"
                }
            ],
            "stateMutability": "view",
            "type": "function"
        },
        {
            "inputs": [],
            "name": "bridgeFee",
            "outputs": [
                {
                    "internalType": "uint256",
                    "name": "",
                    "type": "uint256"
                }
            ],
            "stateMutability": "view",
            "type": "function"
        },
        {
            "inputs": [
                {
                    "internalType": "string",
                    "name": "_payload",
                    "type": "string"
                }
            ],
            "name": "bridgeRequest",
            "outputs": [],
            "stateMutability": "payable",
            "type": "function"
        },
        {
            "inputs": [
                {
                    "internalType": "address",
                    "name": "",
                    "type": "address"
                }
            ],
            "name": "bridgeRequests",
            "outputs": [
                {
                    "internalType": "uint256",
                    "name": "",
                    "type": "uint256"
                }
            ],
            "stateMutability": "view",
            "type": "function"
        },
        {
            "inputs": [],
            "name": "bridgeState",
            "outputs": [
                {
                    "internalType": "bool",
                    "name": "",
                    "type": "bool"
                }
            ],
            "stateMutability": "view",
            "type": "function"
        },
        {
            "inputs": [
                {
                    "internalType": "string",
                    "name": "_bcltKey",
                    "type": "string"
                },
                {
                    "internalType": "address",
                    "name": "_ethAddress",
                    "type": "address"
                }
            ],
            "name": "bridgeUser",
            "outputs": [],
            "stateMutability": "nonpayable",
            "type": "function"
        },
        {
            "inputs": [
                {
                    "internalType": "uint256",
                    "name": "_amount",
                    "type": "uint256"
                }
            ],
            "name": "burn",
            "outputs": [],
            "stateMutability": "payable",
            "type": "function"
        },
        {
            "inputs": [],
            "name": "claimFees",
            "outputs": [],
            "stateMutability": "nonpayable",
            "type": "function"
        },
        {
            "inputs": [],
            "name": "closeBridge",
            "outputs": [],
            "stateMutability": "nonpayable",
            "type": "function"
        },
        {
            "inputs": [],
            "name": "decimals",
            "outputs": [
                {
                    "internalType": "uint8",
                    "name": "",
                    "type": "uint8"
                }
            ],
            "stateMutability": "pure",
            "type": "function"
        },
        {
            "inputs": [
                {
                    "internalType": "address",
                    "name": "spender",
                    "type": "address"
                },
                {
                    "internalType": "uint256",
                    "name": "subtractedValue",
                    "type": "uint256"
                }
            ],
            "name": "decreaseAllowance",
            "outputs": [
                {
                    "internalType": "bool",
                    "name": "",
                    "type": "bool"
                }
            ],
            "stateMutability": "nonpayable",
            "type": "function"
        },
        {
            "inputs": [
                {
                    "internalType": "string",
                    "name": "_account",
                    "type": "string"
                }
            ],
            "name": "getBalance",
            "outputs": [
                {
                    "internalType": "uint256",
                    "name": "_balance",
                    "type": "uint256"
                }
            ],
            "stateMutability": "view",
            "type": "function"
        },
        {
            "inputs": [
                {
                    "internalType": "address",
                    "name": "spender",
                    "type": "address"
                },
                {
                    "internalType": "uint256",
                    "name": "addedValue",
                    "type": "uint256"
                }
            ],
            "name": "increaseAllowance",
            "outputs": [
                {
                    "internalType": "bool",
                    "name": "",
                    "type": "bool"
                }
            ],
            "stateMutability": "nonpayable",
            "type": "function"
        },
        {
            "inputs": [],
            "name": "minimumBurn",
            "outputs": [
                {
                    "internalType": "uint256",
                    "name": "",
                    "type": "uint256"
                }
            ],
            "stateMutability": "view",
            "type": "function"
        },
        {
            "inputs": [
                {
                    "internalType": "string",
                    "name": "_bcltKey",
                    "type": "string"
                },
                {
                    "internalType": "uint256",
                    "name": "_amount",
                    "type": "uint256"
                }
            ],
            "name": "mint",
            "outputs": [],
            "stateMutability": "nonpayable",
            "type": "function"
        },
        {
            "inputs": [],
            "name": "mintFee",
            "outputs": [
                {
                    "internalType": "uint256",
                    "name": "",
                    "type": "uint256"
                }
            ],
            "stateMutability": "view",
            "type": "function"
        },
        {
            "inputs": [],
            "name": "mintRequest",
            "outputs": [],
            "stateMutability": "payable",
            "type": "function"
        },
        {
            "inputs": [
                {
                    "internalType": "address",
                    "name": "",
                    "type": "address"
                }
            ],
            "name": "mintRequests",
            "outputs": [
                {
                    "internalType": "uint256",
                    "name": "",
                    "type": "uint256"
                }
            ],
            "stateMutability": "view",
            "type": "function"
        },
        {
            "inputs": [],
            "name": "name",
            "outputs": [
                {
                    "internalType": "string",
                    "name": "",
                    "type": "string"
                }
            ],
            "stateMutability": "view",
            "type": "function"
        },
        {
            "inputs": [],
            "name": "openBridge",
            "outputs": [],
            "stateMutability": "nonpayable",
            "type": "function"
        },
        {
            "inputs": [],
            "name": "operator",
            "outputs": [
                {
                    "internalType": "address",
                    "name": "",
                    "type": "address"
                }
            ],
            "stateMutability": "view",
            "type": "function"
        },
        {
            "inputs": [],
            "name": "pauseContract",
            "outputs": [],
            "stateMutability": "nonpayable",
            "type": "function"
        },
        {
            "inputs": [],
            "name": "paused",
            "outputs": [
                {
                    "internalType": "bool",
                    "name": "",
                    "type": "bool"
                }
            ],
            "stateMutability": "view",
            "type": "function"
        },
        {
            "inputs": [],
            "name": "removeBridgeRequest",
            "outputs": [],
            "stateMutability": "nonpayable",
            "type": "function"
        },
        {
            "inputs": [],
            "name": "removeMintRequest",
            "outputs": [],
            "stateMutability": "nonpayable",
            "type": "function"
        },
        {
            "inputs": [
                {
                    "internalType": "uint256",
                    "name": "_fee",
                    "type": "uint256"
                }
            ],
            "name": "setBridgeFee",
            "outputs": [],
            "stateMutability": "nonpayable",
            "type": "function"
        },
        {
            "inputs": [
                {
                    "internalType": "uint256",
                    "name": "_fee",
                    "type": "uint256"
                }
            ],
            "name": "setMintFee",
            "outputs": [],
            "stateMutability": "nonpayable",
            "type": "function"
        },
        {
            "inputs": [],
            "name": "symbol",
            "outputs": [
                {
                    "internalType": "string",
                    "name": "",
                    "type": "string"
                }
            ],
            "stateMutability": "view",
            "type": "function"
        },
        {
            "inputs": [],
            "name": "totalSupply",
            "outputs": [
                {
                    "internalType": "uint256",
                    "name": "",
                    "type": "uint256"
                }
            ],
            "stateMutability": "view",
            "type": "function"
        },
        {
            "inputs": [
                {
                    "internalType": "address",
                    "name": "recipient",
                    "type": "address"
                },
                {
                    "internalType": "uint256",
                    "name": "amount",
                    "type": "uint256"
                }
            ],
            "name": "transfer",
            "outputs": [
                {
                    "internalType": "bool",
                    "name": "",
                    "type": "bool"
                }
            ],
            "stateMutability": "nonpayable",
            "type": "function"
        },
        {
            "inputs": [
                {
                    "internalType": "address",
                    "name": "sender",
                    "type": "address"
                },
                {
                    "internalType": "address",
                    "name": "recipient",
                    "type": "address"
                },
                {
                    "internalType": "uint256",
                    "name": "amount",
                    "type": "uint256"
                }
            ],
            "name": "transferFrom",
            "outputs": [
                {
                    "internalType": "bool",
                    "name": "",
                    "type": "bool"
                }
            ],
            "stateMutability": "nonpayable",
            "type": "function"
        },
        {
            "inputs": [
                {
                    "internalType": "address",
                    "name": "_newoperator",
                    "type": "address"
                }
            ],
            "name": "transferOperator",
            "outputs": [],
            "stateMutability": "nonpayable",
            "type": "function"
        },
        {
            "inputs": [],
            "name": "unbridgeUser",
            "outputs": [],
            "stateMutability": "nonpayable",
            "type": "function"
        },
        {
            "inputs": [],
            "name": "unpauseContract",
            "outputs": [],
            "stateMutability": "nonpayable",
            "type": "function"
        },
        {
            "inputs": [
                {
                    "internalType": "string",
                    "name": "_bcltAddress",
                    "type": "string"
                }
            ],
            "name": "userBridged",
            "outputs": [
                {
                    "internalType": "bool",
                    "name": "_bridged",
                    "type": "bool"
                }
            ],
            "stateMutability": "view",
            "type": "function"
        },
        {
            "inputs": [],
            "name": "userBridged",
            "outputs": [
                {
                    "internalType": "bool",
                    "name": "_bridged",
                    "type": "bool"
                }
            ],
            "stateMutability": "view",
            "type": "function"
        },
        {
            "inputs": [
                {
                    "internalType": "address",
                    "name": "_user",
                    "type": "address"
                }
            ],
            "name": "viewBridgeRequest",
            "outputs": [
                {
                    "internalType": "uint256",
                    "name": "_requestFee",
                    "type": "uint256"
                }
            ],
            "stateMutability": "view",
            "type": "function"
        },
        {
            "inputs": [
                {
                    "internalType": "string",
                    "name": "_bcltKey",
                    "type": "string"
                }
            ],
            "name": "viewMintRequest",
            "outputs": [
                {
                    "internalType": "uint256",
                    "name": "_requestFee",
                    "type": "uint256"
                }
            ],
            "stateMutability": "view",
            "type": "function"
        }
    ],
    "bytecode": "60806040526005805460ff60a81b1916600160a81b1790553480156200002457600080fd5b50604051620025d2380380620025d2833981016040819052620000479162000203565b604080518082018252600f81526e109c9a5919d959109a5d18db1bdd5d608a1b6020808301918252835180850190945260068452651890d313d55560d21b9084015281519192916200009c916003916200015d565b508051620000b29060049060208401906200015d565b5050600580546001600160a81b0319166101006001600160a01b03891690810291909117909155600a859055600b849055600c839055600090815260066020908152604090912086516200010c935090918701906200015d565b5084600785604051620001209190620002ec565b908152602001604051809103902060006101000a8154816001600160a01b0302191690836001600160a01b03160217905550505050505062000390565b8280546200016b906200033d565b90600052602060002090601f0160209004810192826200018f5760008555620001da565b82601f10620001aa57805160ff1916838001178555620001da565b82800160010185558215620001da579182015b82811115620001da578251825591602001919060010190620001bd565b50620001e8929150620001ec565b5090565b5b80821115620001e85760008155600101620001ed565b600080600080600060a086880312156200021b578081fd5b85516001600160a01b038116811462000232578182fd5b60208701519095506001600160401b03808211156200024f578283fd5b818801915088601f83011262000263578283fd5b8151818111156200027857620002786200037a565b604051601f8201601f1916810160200183811182821017156200029f576200029f6200037a565b6040528181528382016020018b1015620002b7578485fd5b620002ca8260208301602087016200030a565b60408a015160608b01516080909b0151999c919b509998975095505050505050565b60008251620003008184602087016200030a565b9190910192915050565b60005b83811015620003275781810151838201526020016200030d565b8381111562000337576000848401525b50505050565b6002810460018216806200035257607f821691505b602082108114156200037457634e487b7160e01b600052602260045260246000fd5b50919050565b634e487b7160e01b600052604160045260246000fd5b61223280620003a06000396000f3fe6080604052600436106102465760003560e01c80635c975abb11610139578063a9059cbb116100b6578063daddca381161007a578063daddca381461060c578063dd62ed3e1461061f578063e211d72d1461063f578063e25e52111461065f578063eb5249af14610674578063eddd0d9c1461069457610246565b8063a9059cbb1461058d578063b33712c5146105ad578063ca5e0e88146105c2578063d1d73659146105e2578063d294f093146105f757610246565b806371703a45116100fd57806371703a451461050e57806382b12dd71461052357806395d89b4114610538578063998cdf831461054d578063a457c2d71461056d57610246565b80635c975abb146104a75780636213ee1d146104bc57806367181b32146104d157806370a08231146104e657806370ade0621461050657610246565b80632554a4a4116101c757806342966c681161018b57806342966c6814610428578063439766ce1461043b5780634466ec2c14610450578063570ca735146104655780635b2e99c81461048757610246565b80632554a4a41461039157806329605e77146103a6578063313ce567146103c657806339509351146103e85780633a51d2461461040857610246565b806318160ddd1161020e57806318160ddd146103075780631a38f9b91461031c5780631b89ee311461033c578063224581931461035157806323b872dd1461037157610246565b8063056b01ce1461024b57806306fdde031461026d578063093be91f14610298578063095ea7b3146102c557806313966db5146102f2575b600080fd5b34801561025757600080fd5b5061026b6102663660046119a8565b6106b4565b005b34801561027957600080fd5b50610282610762565b60405161028f9190611afd565b60405180910390f35b3480156102a457600080fd5b506102b86102b3366004611873565b6107f4565b60405161028f9190612123565b3480156102d157600080fd5b506102e56102e0366004611901565b610813565b60405161028f9190611af2565b3480156102fe57600080fd5b506102b8610830565b34801561031357600080fd5b506102b8610836565b34801561032857600080fd5b506102b8610337366004611873565b61083c565b34801561034857600080fd5b5061026b61084e565b34801561035d57600080fd5b506102b861036c36600461192a565b61088c565b34801561037d57600080fd5b506102e561038c3660046118c6565b6108d1565b34801561039d57600080fd5b506102b8610961565b3480156103b257600080fd5b5061026b6103c1366004611873565b610967565b3480156103d257600080fd5b506103db6109be565b60405161028f919061212c565b3480156103f457600080fd5b506102e5610403366004611901565b6109c3565b34801561041457600080fd5b506102b861042336600461192a565b610a17565b61026b6104363660046119eb565b610a50565b34801561044757600080fd5b5061026b610bae565b34801561045c57600080fd5b506102e5610be7565b34801561047157600080fd5b5061047a610bf7565b60405161028f9190611aba565b34801561049357600080fd5b5061026b6104a2366004611965565b610c0b565b3480156104b357600080fd5b506102e5610cb2565b3480156104c857600080fd5b5061026b610cbb565b3480156104dd57600080fd5b5061026b610d77565b3480156104f257600080fd5b506102b8610501366004611873565b610db2565b61026b610dcd565b34801561051a57600080fd5b5061026b610e94565b34801561052f57600080fd5b506102b8610ed8565b34801561054457600080fd5b50610282610ede565b34801561055957600080fd5b5061026b6105683660046119eb565b610eed565b34801561057957600080fd5b506102e5610588366004611901565b610f21565b34801561059957600080fd5b506102e56105a8366004611901565b610f9a565b3480156105b957600080fd5b5061026b610fae565b3480156105ce57600080fd5b506102b86105dd366004611873565b610fe5565b3480156105ee57600080fd5b5061026b610ff7565b34801561060357600080fd5b5061026b611032565b61026b61061a36600461192a565b611075565b34801561062b57600080fd5b506102b861063a366004611894565b61116b565b34801561064b57600080fd5b506102e561065a36600461192a565b611196565b34801561066b57600080fd5b506102e56111df565b34801561068057600080fd5b5061047a61068f36600461192a565b61120f565b3480156106a057600080fd5b5061026b6106af3660046119eb565b611241565b60055461010090046001600160a01b031633146106ec5760405162461bcd60e51b81526004016106e390611d9d565b60405180910390fd5b600960006007846040516107009190611a2f565b9081526040805160209281900383019020546001600160a01b031683529082019290925281016000908120555161075e9060079061073f908590611a2f565b908152604051908190036020019020546001600160a01b031682611275565b5050565b60606003805461077190612195565b80601f016020809104026020016040519081016040528092919081815260200182805461079d90612195565b80156107ea5780601f106107bf576101008083540402835291602001916107ea565b820191906000526020600020905b8154815290600101906020018083116107cd57829003601f168201915b5050505050905090565b6001600160a01b0381166000908152600860205260409020545b919050565b600061082761082061133d565b8484611341565b50600192915050565b600b5481565b60025490565b60086020526000908152604090205481565b60055461010090046001600160a01b0316331461087d5760405162461bcd60e51b81526004016106e390611d9d565b6005805460ff60a81b19169055565b6000600960006007846040516108a29190611a2f565b9081526040805160209281900383019020546001600160a01b0316835290820192909252016000205492915050565b60006108de8484846113f5565b6001600160a01b0384166000908152600160205260408120816108ff61133d565b6001600160a01b03166001600160a01b03168152602001908152602001600020549050828110156109425760405162461bcd60e51b81526004016106e390611ebb565b6109568561094e61133d565b858403611341565b506001949350505050565b600c5481565b60055461010090046001600160a01b031633146109965760405162461bcd60e51b81526004016106e390611d9d565b600580546001600160a01b0390921661010002610100600160a81b0319909216919091179055565b600990565b60006108276109d061133d565b8484600160006109de61133d565b6001600160a01b03908116825260208083019390935260409182016000908120918b1681529252902054610a12919061213a565b611341565b6000610a4a600783604051610a2c9190611a2f565b908152604051908190036020019020546001600160a01b0316610db2565b92915050565b600554600160a81b900460ff16610a795760405162461bcd60e51b81526004016106e390611f44565b3360009081526006602052604090208054610b1b9190610a9890612195565b80601f0160208091040260200160405190810160405280929190818152602001828054610ac490612195565b8015610b115780601f10610ae657610100808354040283529160200191610b11565b820191906000526020600020905b815481529060010190602001808311610af457829003601f168201915b5050505050611196565b610b375760405162461bcd60e51b81526004016106e390611dfe565b600c54811015610b595760405162461bcd60e51b81526004016106e390611e58565b610b63338261151f565b336000908152600660205260409081902090517fa0237080cf48d9e1fbb9ef1f82e33b11170d047b2b540a73b457d0916d53ee9991610ba3918490611b10565b60405180910390a150565b60055461010090046001600160a01b03163314610bdd5760405162461bcd60e51b81526004016106e390611d9d565b610be5611611565b565b600554600160a81b900460ff1681565b60055461010090046001600160a01b031681565b60055461010090046001600160a01b03163314610c3a5760405162461bcd60e51b81526004016106e390611d9d565b6001600160a01b0381166000908152600860209081526040808320839055600682529091208351610c6d9285019061170a565b5080600783604051610c7f9190611a2f565b90815260405190819003602001902080546001600160a01b03929092166001600160a01b03199092169190911790555050565b60055460ff1690565b3360009081526006602052604090208054610cda9190610a9890612195565b610cf65760405162461bcd60e51b81526004016106e390611cc7565b3360009081526009602052604090205415610d235760405162461bcd60e51b81526004016106e390611e8d565b33600090815260066020526040908190209051600791610d4291611a4b565b908152604080516020928190038301902080546001600160a01b031916905533600090815260069092528120610be59161178e565b600554600160a81b900460ff16610da05760405162461bcd60e51b81526004016106e390611f44565b33600090815260086020526040812055565b6001600160a01b031660009081526020819052604090205490565b600554600160a81b900460ff16610df65760405162461bcd60e51b81526004016106e390611f44565b3360009081526006602052604090208054610e159190610a9890612195565b610e315760405162461bcd60e51b81526004016106e390612078565b600b54341015610e535760405162461bcd60e51b81526004016106e390611cf1565b3360009081526009602052604090205415610e805760405162461bcd60e51b81526004016106e390611ffc565b336000908152600960205260409020349055565b60055461010090046001600160a01b03163314610ec35760405162461bcd60e51b81526004016106e390611d9d565b6005805460ff60a81b1916600160a81b179055565b600a5481565b60606004805461077190612195565b60055461010090046001600160a01b03163314610f1c5760405162461bcd60e51b81526004016106e390611d9d565b600a55565b60008060016000610f3061133d565b6001600160a01b0390811682526020808301939093526040918201600090812091881681529252902054905082811015610f7c5760405162461bcd60e51b81526004016106e390612033565b610f90610f8761133d565b85858403611341565b5060019392505050565b6000610827610fa761133d565b84846113f5565b60055461010090046001600160a01b03163314610fdd5760405162461bcd60e51b81526004016106e390611d9d565b610be5611683565b60096020526000908152604090205481565b600554600160a81b900460ff166110205760405162461bcd60e51b81526004016106e390611f44565b33600090815260096020526040812055565b6005546040516001600160a01b0361010090920491909116904780156108fc02916000818181858888f19350505050158015611072573d6000803e3d6000fd5b50565b600554600160a81b900460ff1661109e5760405162461bcd60e51b81526004016106e390611f44565b33600090815260066020526040902080546110bd9190610a9890612195565b156110da5760405162461bcd60e51b81526004016106e390611d28565b600a543410156110fc5760405162461bcd60e51b81526004016106e390611e2b565b33600090815260086020526040902054156111295760405162461bcd60e51b81526004016106e390611c4e565b3360008181526008602052604090819020349055517ff3a2b9d2f578ed48c6766414c7478bfb7fd0c435622a42fffc66107ba7b4dcf391610ba3918490611ace565b6001600160a01b03918216600090815260016020908152604080832093909416825291909152205490565b6000806001600160a01b03166007836040516111b29190611a2f565b908152604051908190036020019020546001600160a01b0316146111d7576001610a4a565b506000919050565b33600090815260066020526040812080546111f990612195565b15905061120757600161120a565b60005b905090565b60006007826040516112219190611a2f565b908152604051908190036020019020546001600160a01b03169050919050565b60055461010090046001600160a01b031633146112705760405162461bcd60e51b81526004016106e390611d9d565b600b55565b6001600160a01b03821661129b5760405162461bcd60e51b81526004016106e3906120a2565b6112a7600083836116da565b80600260008282546112b9919061213a565b90915550506001600160a01b038216600090815260208190526040812080548392906112e690849061213a565b90915550506040516001600160a01b038316906000907fddf252ad1be2c89b69c2b068fc378daa952ba7f163c4a11628f55a4df523b3ef90611329908590612123565b60405180910390a361075e6000838361160c565b3390565b6001600160a01b0383166113675760405162461bcd60e51b81526004016106e390611fb8565b6001600160a01b03821661138d5760405162461bcd60e51b81526004016106e390611c85565b6001600160a01b0380841660008181526001602090815260408083209487168084529490915290819020849055517f8c5be1e5ebec7d5bd14f71427d1e84f3dd0314c0f7b2291e5b200ac8c7c3b925906113e8908590612123565b60405180910390a3505050565b6001600160a01b03831661141b5760405162461bcd60e51b81526004016106e390611f73565b6001600160a01b0382166114415760405162461bcd60e51b81526004016106e390611b9b565b61144c8383836116da565b6001600160a01b038316600090815260208190526040902054818110156114855760405162461bcd60e51b81526004016106e390611d57565b6001600160a01b038085166000908152602081905260408082208585039055918516815290812080548492906114bc90849061213a565b92505081905550826001600160a01b0316846001600160a01b03167fddf252ad1be2c89b69c2b068fc378daa952ba7f163c4a11628f55a4df523b3ef846040516115069190612123565b60405180910390a361151984848461160c565b50505050565b6001600160a01b0382166115455760405162461bcd60e51b81526004016106e390611f03565b611551826000836116da565b6001600160a01b0382166000908152602081905260409020548181101561158a5760405162461bcd60e51b81526004016106e390611c0c565b6001600160a01b03831660009081526020819052604081208383039055600280548492906115b9908490612152565b90915550506040516000906001600160a01b038516907fddf252ad1be2c89b69c2b068fc378daa952ba7f163c4a11628f55a4df523b3ef906115fc908690612123565b60405180910390a361160c836000845b505050565b611619610cb2565b156116365760405162461bcd60e51b81526004016106e390611dd4565b6005805460ff191660011790557f62e78cea01bee320cd4e420270b5ea74000d11b0c9f74754ebdbfc544b05a25861166c61133d565b6040516116799190611aba565b60405180910390a1565b61168b610cb2565b6116a75760405162461bcd60e51b81526004016106e390611bde565b6005805460ff191690557f5db9ee0a495bf2e6ff9c91a7834c1ba4fdd244a5e8aa4e537bd38aeae4b073aa61166c61133d565b6116e583838361160c565b6116ed610cb2565b1561160c5760405162461bcd60e51b81526004016106e3906120d9565b82805461171690612195565b90600052602060002090601f016020900481019282611738576000855561177e565b82601f1061175157805160ff191683800117855561177e565b8280016001018555821561177e579182015b8281111561177e578251825591602001919060010190611763565b5061178a9291506117c6565b5090565b50805461179a90612195565b6000825580601f106117ac5750611072565b601f01602090049060005260206000209081019061107291905b5b8082111561178a57600081556001016117c7565b80356001600160a01b038116811461080e57600080fd5b600082601f830112611802578081fd5b813567ffffffffffffffff8082111561181d5761181d6121e6565b604051601f8301601f191681016020018281118282101715611841576118416121e6565b604052828152848301602001861015611858578384fd5b82602086016020830137918201602001929092529392505050565b600060208284031215611884578081fd5b61188d826117db565b9392505050565b600080604083850312156118a6578081fd5b6118af836117db565b91506118bd602084016117db565b90509250929050565b6000806000606084860312156118da578081fd5b6118e3846117db565b92506118f1602085016117db565b9150604084013590509250925092565b60008060408385031215611913578182fd5b61191c836117db565b946020939093013593505050565b60006020828403121561193b578081fd5b813567ffffffffffffffff811115611951578182fd5b61195d848285016117f2565b949350505050565b60008060408385031215611977578182fd5b823567ffffffffffffffff81111561198d578283fd5b611999858286016117f2565b9250506118bd602084016117db565b600080604083850312156119ba578182fd5b823567ffffffffffffffff8111156119d0578283fd5b6119dc858286016117f2565b95602094909401359450505050565b6000602082840312156119fc578081fd5b5035919050565b60008151808452611a1b816020860160208601612169565b601f01601f19169290920160200192915050565b60008251611a41818460208701612169565b9190910192915050565b6000808354611a5981612195565b60018281168015611a715760018114611a8257611aae565b60ff19841687528287019450611aae565b8786526020808720875b85811015611aa55781548a820152908401908201611a8c565b50505082870194505b50929695505050505050565b6001600160a01b0391909116815260200190565b6001600160a01b038316815260406020820181905260009061195d90830184611a03565b901515815260200190565b60006020825261188d6020830184611a03565b600060408252808454611b2281612195565b8060408601526060600180841660008114611b445760018114611b5857611b86565b60ff19851688840152608088019550611b86565b8987526020808820885b86811015611b7d5781548b8201870152908401908201611b62565b8a018501975050505b50505050506020929092019290925292915050565b60208082526023908201527f45524332303a207472616e7366657220746f20746865207a65726f206164647260408201526265737360e81b606082015260800190565b60208082526014908201527314185d5cd8589b194e881b9bdd081c185d5cd95960621b604082015260600190565b60208082526022908201527f45524332303a206275726e20616d6f756e7420657863656564732062616c616e604082015261636560f01b606082015260800190565b6020808252601e908201527f416c7265616479206d61646520612062726964676520726571756573742e0000604082015260600190565b60208082526022908201527f45524332303a20617070726f766520746f20746865207a65726f206164647265604082015261737360f01b606082015260800190565b60208082526010908201526f155cd95c88139bdd08109c9a5919d95960821b604082015260600190565b60208082526018908201527f496e76616c69642073656e646572206d696e74206665652e0000000000000000604082015260600190565b6020808252601590820152742ab9b2b91020b63932b0b23c90213934b233b2b21760591b604082015260600190565b60208082526026908201527f45524332303a207472616e7366657220616d6f756e7420657863656564732062604082015265616c616e636560d01b606082015260800190565b6020808252601b908201527f4d7573742062652063616c6c6564206279206f70657261746f722e0000000000604082015260600190565b60208082526010908201526f14185d5cd8589b194e881c185d5cd95960821b604082015260600190565b602080825260139082015272155cd95c881a5cc81b9bdd08109c9a5919d959606a1b604082015260600190565b60208082526013908201527224b73b30b634b210213934b233b2902332b29760691b604082015260600190565b6020808252818101527f6275726e207472616e7366657220616d6f756e742077617320746f206c6f772e604082015260600190565b60208082526014908201527314195b991a5b99c81b5a5b9d081c995c5d595cdd60621b604082015260600190565b60208082526028908201527f45524332303a207472616e7366657220616d6f756e74206578636565647320616040820152676c6c6f77616e636560c01b606082015260800190565b60208082526021908201527f45524332303a206275726e2066726f6d20746865207a65726f206164647265736040820152607360f81b606082015260800190565b6020808252601590820152742a343290213934b233b29034b99021b637b9b2b21760591b604082015260600190565b60208082526025908201527f45524332303a207472616e736665722066726f6d20746865207a65726f206164604082015264647265737360d81b606082015260800190565b60208082526024908201527f45524332303a20617070726f76652066726f6d20746865207a65726f206164646040820152637265737360e01b606082015260800190565b6020808252601b908201527f416c7265616479206d6164652061206d696e7420726571756573740000000000604082015260600190565b60208082526025908201527f45524332303a2064656372656173656420616c6c6f77616e63652062656c6f77604082015264207a65726f60d81b606082015260800190565b60208082526010908201526f155cd95c881b9bdd08109c9a5919d95960821b604082015260600190565b6020808252601f908201527f45524332303a206d696e7420746f20746865207a65726f206164647265737300604082015260600190565b6020808252602a908201527f45524332305061757361626c653a20746f6b656e207472616e736665722077686040820152691a5b19481c185d5cd95960b21b606082015260800190565b90815260200190565b60ff91909116815260200190565b6000821982111561214d5761214d6121d0565b500190565b600082821015612164576121646121d0565b500390565b60005b8381101561218457818101518382015260200161216c565b838111156115195750506000910152565b6002810460018216806121a957607f821691505b602082108114156121ca57634e487b7160e01b600052602260045260246000fd5b50919050565b634e487b7160e01b600052601160045260246000fd5b634e487b7160e01b600052604160045260246000fdfea2646970667358221220232d4d57750b85ddbdde877910330cb7e67636a11deed6149b2a29c48063f5cd64736f6c63430008000033",
    "sourcePath": "e:/CloutBridge/src/BridgedBitclout.sol",
    "compiler": {
        "name": "solc",
        "version": "0.8.0+commit.c7dfd78e"
    },
    "functionHashes": {
        "allowance(address,address)": "dd62ed3e",
        "approve(address,uint256)": "095ea7b3",
        "balanceOf(address)": "70a08231",
        "bcltToEthAddress(string)": "eb5249af",
        "bridgeFee()": "82b12dd7",
        "bridgeRequest(string)": "daddca38",
        "bridgeRequests(address)": "1a38f9b9",
        "bridgeState()": "4466ec2c",
        "bridgeUser(string,address)": "5b2e99c8",
        "burn(uint256)": "42966c68",
        "claimFees()": "d294f093",
        "closeBridge()": "1b89ee31",
        "decimals()": "313ce567",
        "decreaseAllowance(address,uint256)": "a457c2d7",
        "getBalance(string)": "3a51d246",
        "increaseAllowance(address,uint256)": "39509351",
        "minimumBurn()": "2554a4a4",
        "mint(string,uint256)": "056b01ce",
        "mintFee()": "13966db5",
        "mintRequest()": "70ade062",
        "mintRequests(address)": "ca5e0e88",
        "name()": "06fdde03",
        "openBridge()": "71703a45",
        "operator()": "570ca735",
        "pauseContract()": "439766ce",
        "paused()": "5c975abb",
        "removeBridgeRequest()": "67181b32",
        "removeMintRequest()": "d1d73659",
        "setBridgeFee(uint256)": "998cdf83",
        "setMintFee(uint256)": "eddd0d9c",
        "symbol()": "95d89b41",
        "totalSupply()": "18160ddd",
        "transfer(address,uint256)": "a9059cbb",
        "transferFrom(address,address,uint256)": "23b872dd",
        "transferOperator(address)": "29605e77",
        "unbridgeUser()": "6213ee1d",
        "unpauseContract()": "b33712c5",
        "userBridged()": "e25e5211",
        "userBridged(string)": "e211d72d",
        "viewBridgeRequest(address)": "093be91f",
        "viewMintRequest(string)": "22458193"
    },
    "gasEstimates": {
        "creation": {
            "codeDepositCost": "1750800",
            "executionCost": "infinite",
            "totalCost": "infinite"
        },
        "external": {
            "allowance(address,address)": "infinite",
            "approve(address,uint256)": "22696",
            "balanceOf(address)": "1385",
            "bcltToEthAddress(string)": "infinite",
            "bridgeFee()": "1095",
            "bridgeRequest(string)": "infinite",
            "bridgeRequests(address)": "1320",
            "bridgeState()": "1146",
            "bridgeUser(string,address)": "infinite",
            "burn(uint256)": "infinite",
            "claimFees()": "infinite",
            "closeBridge()": "21909",
            "decimals()": "330",
            "decreaseAllowance(address,uint256)": "infinite",
            "getBalance(string)": "infinite",
            "increaseAllowance(address,uint256)": "infinite",
            "minimumBurn()": "1074",
            "mint(string,uint256)": "infinite",
            "mintFee()": "1163",
            "mintRequest()": "infinite",
            "mintRequests(address)": "1341",
            "name()": "infinite",
            "openBridge()": "21876",
            "operator()": "1192",
            "pauseContract()": "23903",
            "paused()": "1086",
            "removeBridgeRequest()": "6145",
            "removeMintRequest()": "6166",
            "setBridgeFee(uint256)": "21186",
            "setMintFee(uint256)": "21229",
            "symbol()": "infinite",
            "totalSupply()": "1074",
            "transfer(address,uint256)": "infinite",
            "transferFrom(address,address,uint256)": "infinite",
            "transferOperator(address)": "22101",
            "unbridgeUser()": "infinite",
            "unpauseContract()": "23894",
            "userBridged()": "1376",
            "userBridged(string)": "infinite",
            "viewBridgeRequest(address)": "infinite",
            "viewMintRequest(string)": "infinite"
        },
        "internal": {
            "_beforeTokenTransfer(address,address,uint256)": "infinite"
        }
    }
}