{
    "contractName": "BridgedClout",
    "abi": [
        {
            "inputs": [
                {
                    "internalType": "address",
                    "name": "_operator",
                    "type": "address"
                },
                {
                    "internalType": "string",
                    "name": "_bcltKey",
                    "type": "string"
                },
                {
                    "internalType": "uint256",
                    "name": "_bridgeFee",
                    "type": "uint256"
                },
                {
                    "internalType": "uint256",
                    "name": "_mintFee",
                    "type": "uint256"
                },
                {
                    "internalType": "uint256",
                    "name": "_minimumBurn",
                    "type": "uint256"
                }
            ],
            "stateMutability": "nonpayable",
            "type": "constructor"
        },
        {
            "anonymous": false,
            "inputs": [
                {
                    "indexed": true,
                    "internalType": "address",
                    "name": "owner",
                    "type": "address"
                },
                {
                    "indexed": true,
                    "internalType": "address",
                    "name": "spender",
                    "type": "address"
                },
                {
                    "indexed": false,
                    "internalType": "uint256",
                    "name": "value",
                    "type": "uint256"
                }
            ],
            "name": "Approval",
            "type": "event"
        },
        {
            "anonymous": false,
            "inputs": [
                {
                    "indexed": false,
                    "internalType": "address",
                    "name": "_user",
                    "type": "address"
                },
                {
                    "indexed": false,
                    "internalType": "string",
                    "name": "_payload",
                    "type": "string"
                }
            ],
            "name": "BridgeRequest",
            "type": "event"
        },
        {
            "anonymous": false,
            "inputs": [
                {
                    "indexed": false,
                    "internalType": "string",
                    "name": "_bcltKey",
                    "type": "string"
                },
                {
                    "indexed": false,
                    "internalType": "uint256",
                    "name": "_amount",
                    "type": "uint256"
                }
            ],
            "name": "Burn",
            "type": "event"
        },
        {
            "anonymous": false,
            "inputs": [
                {
                    "indexed": false,
                    "internalType": "address",
                    "name": "account",
                    "type": "address"
                }
            ],
            "name": "Paused",
            "type": "event"
        },
        {
            "anonymous": false,
            "inputs": [
                {
                    "indexed": true,
                    "internalType": "address",
                    "name": "from",
                    "type": "address"
                },
                {
                    "indexed": true,
                    "internalType": "address",
                    "name": "to",
                    "type": "address"
                },
                {
                    "indexed": false,
                    "internalType": "uint256",
                    "name": "value",
                    "type": "uint256"
                }
            ],
            "name": "Transfer",
            "type": "event"
        },
        {
            "anonymous": false,
            "inputs": [
                {
                    "indexed": false,
                    "internalType": "address",
                    "name": "account",
                    "type": "address"
                }
            ],
            "name": "Unpaused",
            "type": "event"
        },
        {
            "inputs": [
                {
                    "internalType": "address",
                    "name": "owner",
                    "type": "address"
                },
                {
                    "internalType": "address",
                    "name": "spender",
                    "type": "address"
                }
            ],
            "name": "allowance",
            "outputs": [
                {
                    "internalType": "uint256",
                    "name": "",
                    "type": "uint256"
                }
            ],
            "stateMutability": "view",
            "type": "function"
        },
        {
            "inputs": [
                {
                    "internalType": "address",
                    "name": "spender",
                    "type": "address"
                },
                {
                    "internalType": "uint256",
                    "name": "amount",
                    "type": "uint256"
                }
            ],
            "name": "approve",
            "outputs": [
                {
                    "internalType": "bool",
                    "name": "",
                    "type": "bool"
                }
            ],
            "stateMutability": "nonpayable",
            "type": "function"
        },
        {
            "inputs": [
                {
                    "internalType": "address",
                    "name": "account",
                    "type": "address"
                }
            ],
            "name": "balanceOf",
            "outputs": [
                {
                    "internalType": "uint256",
                    "name": "",
                    "type": "uint256"
                }
            ],
            "stateMutability": "view",
            "type": "function"
        },
        {
            "inputs": [
                {
                    "internalType": "string",
                    "name": "_bcltKey",
                    "type": "string"
                }
            ],
            "name": "bcltToEthAddress",
            "outputs": [
                {
                    "internalType": "address",
                    "name": "_userAddress",
                    "type": "address"
                }
            ],
            "stateMutability": "view",
            "type": "function"
        },
        {
            "inputs": [],
            "name": "bridgeFee",
            "outputs": [
                {
                    "internalType": "uint256",
                    "name": "",
                    "type": "uint256"
                }
            ],
            "stateMutability": "view",
            "type": "function"
        },
        {
            "inputs": [
                {
                    "internalType": "string",
                    "name": "_payload",
                    "type": "string"
                }
            ],
            "name": "bridgeRequest",
            "outputs": [],
            "stateMutability": "payable",
            "type": "function"
        },
        {
            "inputs": [
                {
                    "internalType": "address",
                    "name": "",
                    "type": "address"
                }
            ],
            "name": "bridgeRequests",
            "outputs": [
                {
                    "internalType": "uint256",
                    "name": "",
                    "type": "uint256"
                }
            ],
            "stateMutability": "view",
            "type": "function"
        },
        {
            "inputs": [],
            "name": "bridgeState",
            "outputs": [
                {
                    "internalType": "bool",
                    "name": "",
                    "type": "bool"
                }
            ],
            "stateMutability": "view",
            "type": "function"
        },
        {
            "inputs": [
                {
                    "internalType": "string",
                    "name": "_bcltKey",
                    "type": "string"
                },
                {
                    "internalType": "address",
                    "name": "_ethAddress",
                    "type": "address"
                }
            ],
            "name": "bridgeUser",
            "outputs": [],
            "stateMutability": "nonpayable",
            "type": "function"
        },
        {
            "inputs": [
                {
                    "internalType": "uint256",
                    "name": "_amount",
                    "type": "uint256"
                }
            ],
            "name": "burn",
            "outputs": [],
            "stateMutability": "payable",
            "type": "function"
        },
        {
            "inputs": [],
            "name": "claimFees",
            "outputs": [],
            "stateMutability": "nonpayable",
            "type": "function"
        },
        {
            "inputs": [],
            "name": "closeBridge",
            "outputs": [],
            "stateMutability": "nonpayable",
            "type": "function"
        },
        {
            "inputs": [],
            "name": "decimals",
            "outputs": [
                {
                    "internalType": "uint8",
                    "name": "",
                    "type": "uint8"
                }
            ],
            "stateMutability": "pure",
            "type": "function"
        },
        {
            "inputs": [
                {
                    "internalType": "address",
                    "name": "spender",
                    "type": "address"
                },
                {
                    "internalType": "uint256",
                    "name": "subtractedValue",
                    "type": "uint256"
                }
            ],
            "name": "decreaseAllowance",
            "outputs": [
                {
                    "internalType": "bool",
                    "name": "",
                    "type": "bool"
                }
            ],
            "stateMutability": "nonpayable",
            "type": "function"
        },
        {
            "inputs": [],
            "name": "ethToBcltAddress",
            "outputs": [
                {
                    "internalType": "string",
                    "name": "_bcltAddress",
                    "type": "string"
                }
            ],
            "stateMutability": "view",
            "type": "function"
        },
        {
            "inputs": [
                {
                    "internalType": "string",
                    "name": "_account",
                    "type": "string"
                }
            ],
            "name": "getBalance",
            "outputs": [
                {
                    "internalType": "uint256",
                    "name": "_balance",
                    "type": "uint256"
                }
            ],
            "stateMutability": "view",
            "type": "function"
        },
        {
            "inputs": [
                {
                    "internalType": "address",
                    "name": "spender",
                    "type": "address"
                },
                {
                    "internalType": "uint256",
                    "name": "addedValue",
                    "type": "uint256"
                }
            ],
            "name": "increaseAllowance",
            "outputs": [
                {
                    "internalType": "bool",
                    "name": "",
                    "type": "bool"
                }
            ],
            "stateMutability": "nonpayable",
            "type": "function"
        },
        {
            "inputs": [],
            "name": "minimumBurn",
            "outputs": [
                {
                    "internalType": "uint256",
                    "name": "",
                    "type": "uint256"
                }
            ],
            "stateMutability": "view",
            "type": "function"
        },
        {
            "inputs": [
                {
                    "internalType": "string",
                    "name": "_bcltKey",
                    "type": "string"
                },
                {
                    "internalType": "uint256",
                    "name": "_amount",
                    "type": "uint256"
                }
            ],
            "name": "mint",
            "outputs": [],
            "stateMutability": "nonpayable",
            "type": "function"
        },
        {
            "inputs": [],
            "name": "mintFee",
            "outputs": [
                {
                    "internalType": "uint256",
                    "name": "",
                    "type": "uint256"
                }
            ],
            "stateMutability": "view",
            "type": "function"
        },
        {
            "inputs": [],
            "name": "mintRequest",
            "outputs": [],
            "stateMutability": "payable",
            "type": "function"
        },
        {
            "inputs": [
                {
                    "internalType": "address",
                    "name": "",
                    "type": "address"
                }
            ],
            "name": "mintRequests",
            "outputs": [
                {
                    "internalType": "uint256",
                    "name": "",
                    "type": "uint256"
                }
            ],
            "stateMutability": "view",
            "type": "function"
        },
        {
            "inputs": [],
            "name": "name",
            "outputs": [
                {
                    "internalType": "string",
                    "name": "",
                    "type": "string"
                }
            ],
            "stateMutability": "view",
            "type": "function"
        },
        {
            "inputs": [],
            "name": "openBridge",
            "outputs": [],
            "stateMutability": "nonpayable",
            "type": "function"
        },
        {
            "inputs": [],
            "name": "operator",
            "outputs": [
                {
                    "internalType": "address",
                    "name": "",
                    "type": "address"
                }
            ],
            "stateMutability": "view",
            "type": "function"
        },
        {
            "inputs": [],
            "name": "pauseContract",
            "outputs": [],
            "stateMutability": "nonpayable",
            "type": "function"
        },
        {
            "inputs": [],
            "name": "paused",
            "outputs": [
                {
                    "internalType": "bool",
                    "name": "",
                    "type": "bool"
                }
            ],
            "stateMutability": "view",
            "type": "function"
        },
        {
            "inputs": [],
            "name": "removeBridgeRequest",
            "outputs": [],
            "stateMutability": "nonpayable",
            "type": "function"
        },
        {
            "inputs": [],
            "name": "removeMintRequest",
            "outputs": [],
            "stateMutability": "nonpayable",
            "type": "function"
        },
        {
            "inputs": [
                {
                    "internalType": "uint256",
                    "name": "_fee",
                    "type": "uint256"
                }
            ],
            "name": "setBridgeFee",
            "outputs": [],
            "stateMutability": "nonpayable",
            "type": "function"
        },
        {
            "inputs": [
                {
                    "internalType": "uint256",
                    "name": "_fee",
                    "type": "uint256"
                }
            ],
            "name": "setMintFee",
            "outputs": [],
            "stateMutability": "nonpayable",
            "type": "function"
        },
        {
            "inputs": [],
            "name": "symbol",
            "outputs": [
                {
                    "internalType": "string",
                    "name": "",
                    "type": "string"
                }
            ],
            "stateMutability": "view",
            "type": "function"
        },
        {
            "inputs": [],
            "name": "totalSupply",
            "outputs": [
                {
                    "internalType": "uint256",
                    "name": "",
                    "type": "uint256"
                }
            ],
            "stateMutability": "view",
            "type": "function"
        },
        {
            "inputs": [
                {
                    "internalType": "address",
                    "name": "recipient",
                    "type": "address"
                },
                {
                    "internalType": "uint256",
                    "name": "amount",
                    "type": "uint256"
                }
            ],
            "name": "transfer",
            "outputs": [
                {
                    "internalType": "bool",
                    "name": "",
                    "type": "bool"
                }
            ],
            "stateMutability": "nonpayable",
            "type": "function"
        },
        {
            "inputs": [
                {
                    "internalType": "address",
                    "name": "sender",
                    "type": "address"
                },
                {
                    "internalType": "address",
                    "name": "recipient",
                    "type": "address"
                },
                {
                    "internalType": "uint256",
                    "name": "amount",
                    "type": "uint256"
                }
            ],
            "name": "transferFrom",
            "outputs": [
                {
                    "internalType": "bool",
                    "name": "",
                    "type": "bool"
                }
            ],
            "stateMutability": "nonpayable",
            "type": "function"
        },
        {
            "inputs": [
                {
                    "internalType": "address",
                    "name": "_newoperator",
                    "type": "address"
                }
            ],
            "name": "transferOperator",
            "outputs": [],
            "stateMutability": "nonpayable",
            "type": "function"
        },
        {
            "inputs": [],
            "name": "unbridgeUser",
            "outputs": [],
            "stateMutability": "nonpayable",
            "type": "function"
        },
        {
            "inputs": [],
            "name": "unpauseContract",
            "outputs": [],
            "stateMutability": "nonpayable",
            "type": "function"
        },
        {
            "inputs": [
                {
                    "internalType": "string",
                    "name": "_bcltAddress",
                    "type": "string"
                }
            ],
            "name": "userBridged",
            "outputs": [
                {
                    "internalType": "bool",
                    "name": "_bridged",
                    "type": "bool"
                }
            ],
            "stateMutability": "view",
            "type": "function"
        },
        {
            "inputs": [],
            "name": "userBridged",
            "outputs": [
                {
                    "internalType": "bool",
                    "name": "_bridged",
                    "type": "bool"
                }
            ],
            "stateMutability": "view",
            "type": "function"
        },
        {
            "inputs": [
                {
                    "internalType": "address",
                    "name": "_user",
                    "type": "address"
                }
            ],
            "name": "viewBridgeRequest",
            "outputs": [
                {
                    "internalType": "uint256",
                    "name": "_requestFee",
                    "type": "uint256"
                }
            ],
            "stateMutability": "view",
            "type": "function"
        },
        {
            "inputs": [
                {
                    "internalType": "string",
                    "name": "_bcltKey",
                    "type": "string"
                }
            ],
            "name": "viewMintRequest",
            "outputs": [
                {
                    "internalType": "uint256",
                    "name": "_requestFee",
                    "type": "uint256"
                }
            ],
            "stateMutability": "view",
            "type": "function"
        },
        {
            "inputs": [],
            "name": "viewMintRequest",
            "outputs": [
                {
                    "internalType": "uint256",
                    "name": "_requestFee",
                    "type": "uint256"
                }
            ],
            "stateMutability": "view",
            "type": "function"
        }
    ],
    "bytecode": "60806040526005805460ff60a81b1916600160a81b1790553480156200002457600080fd5b506040516200264438038062002644833981016040819052620000479162000200565b604080518082018252600c81526b109c9a5919d95910db1bdd5d60a21b6020808301918252835180850190945260068452651890d313d55560d21b90840152815191929162000099916003916200015a565b508051620000af9060049060208401906200015a565b5050600580546001600160a81b0319166101006001600160a01b03891690810291909117909155600a859055600b849055600c8390556000908152600660209081526040909120865162000109935090918701906200015a565b50846007856040516200011d9190620002e9565b908152602001604051809103902060006101000a8154816001600160a01b0302191690836001600160a01b0316021790555050505050506200038d565b82805462000168906200033a565b90600052602060002090601f0160209004810192826200018c5760008555620001d7565b82601f10620001a757805160ff1916838001178555620001d7565b82800160010185558215620001d7579182015b82811115620001d7578251825591602001919060010190620001ba565b50620001e5929150620001e9565b5090565b5b80821115620001e55760008155600101620001ea565b600080600080600060a0868803121562000218578081fd5b85516001600160a01b03811681146200022f578182fd5b60208701519095506001600160401b03808211156200024c578283fd5b818801915088601f83011262000260578283fd5b81518181111562000275576200027562000377565b604051601f8201601f1916810160200183811182821017156200029c576200029c62000377565b6040528181528382016020018b1015620002b4578485fd5b620002c782602083016020870162000307565b60408a015160608b01516080909b0151999c919b509998975095505050505050565b60008251620002fd81846020870162000307565b9190910192915050565b60005b83811015620003245781810151838201526020016200030a565b8381111562000334576000848401525b50505050565b6002810460018216806200034f57607f821691505b602082108114156200037157634e487b7160e01b600052602260045260246000fd5b50919050565b634e487b7160e01b600052604160045260246000fd5b6122a7806200039d6000396000f3fe60806040526004361061025c5760003560e01c80636213ee1d11610144578063b33712c5116100b6578063daddca381161007a578063daddca381461064c578063dd62ed3e1461065f578063e211d72d1461067f578063e25e52111461069f578063eb5249af146106b4578063eddd0d9c146106d45761025c565b8063b33712c5146105d8578063be7ef847146105ed578063ca5e0e8814610602578063d1d7365914610622578063d294f093146106375761025c565b806382b12dd71161010857806382b12dd7146105395780638db2d6fb1461054e57806395d89b4114610563578063998cdf8314610578578063a457c2d714610598578063a9059cbb146105b85761025c565b80636213ee1d146104d257806367181b32146104e757806370a08231146104fc57806370ade0621461051c57806371703a45146105245761025c565b80632554a4a4116101dd57806342966c68116101a157806342966c681461043e578063439766ce146104515780634466ec2c14610466578063570ca7351461047b5780635b2e99c81461049d5780635c975abb146104bd5761025c565b80632554a4a4146103a757806329605e77146103bc578063313ce567146103dc57806339509351146103fe5780633a51d2461461041e5761025c565b806318160ddd1161022457806318160ddd1461031d5780631a38f9b9146103325780631b89ee3114610352578063224581931461036757806323b872dd146103875761025c565b8063056b01ce1461026157806306fdde0314610283578063093be91f146102ae578063095ea7b3146102db57806313966db514610308575b600080fd5b34801561026d57600080fd5b5061028161027c366004611a19565b6106f4565b005b34801561028f57600080fd5b506102986107a2565b6040516102a59190611b6e565b60405180910390f35b3480156102ba57600080fd5b506102ce6102c93660046118e4565b610834565b6040516102a59190612198565b3480156102e757600080fd5b506102fb6102f6366004611972565b610853565b6040516102a59190611b63565b34801561031457600080fd5b506102ce610870565b34801561032957600080fd5b506102ce610876565b34801561033e57600080fd5b506102ce61034d3660046118e4565b61087c565b34801561035e57600080fd5b5061028161088e565b34801561037357600080fd5b506102ce61038236600461199b565b6108cc565b34801561039357600080fd5b506102fb6103a2366004611937565b610911565b3480156103b357600080fd5b506102ce6109a1565b3480156103c857600080fd5b506102816103d73660046118e4565b6109a7565b3480156103e857600080fd5b506103f16109fe565b6040516102a591906121a1565b34801561040a57600080fd5b506102fb610419366004611972565b610a03565b34801561042a57600080fd5b506102ce61043936600461199b565b610a57565b61028161044c366004611a5c565b610a90565b34801561045d57600080fd5b50610281610bee565b34801561047257600080fd5b506102fb610c27565b34801561048757600080fd5b50610490610c37565b6040516102a59190611b2b565b3480156104a957600080fd5b506102816104b83660046119d6565b610c4b565b3480156104c957600080fd5b506102fb610cf2565b3480156104de57600080fd5b50610281610cfb565b3480156104f357600080fd5b50610281610db7565b34801561050857600080fd5b506102ce6105173660046118e4565b610df2565b610281610e0d565b34801561053057600080fd5b50610281610ed4565b34801561054557600080fd5b506102ce610f18565b34801561055a57600080fd5b506102ce610f1e565b34801561056f57600080fd5b50610298610f31565b34801561058457600080fd5b50610281610593366004611a5c565b610f40565b3480156105a457600080fd5b506102fb6105b3366004611972565b610f74565b3480156105c457600080fd5b506102fb6105d3366004611972565b610fed565b3480156105e457600080fd5b50610281611001565b3480156105f957600080fd5b50610298611038565b34801561060e57600080fd5b506102ce61061d3660046118e4565b611056565b34801561062e57600080fd5b50610281611068565b34801561064357600080fd5b506102816110a3565b61028161065a36600461199b565b6110e6565b34801561066b57600080fd5b506102ce61067a366004611905565b6111dc565b34801561068b57600080fd5b506102fb61069a36600461199b565b611207565b3480156106ab57600080fd5b506102fb611250565b3480156106c057600080fd5b506104906106cf36600461199b565b611280565b3480156106e057600080fd5b506102816106ef366004611a5c565b6112b2565b60055461010090046001600160a01b0316331461072c5760405162461bcd60e51b815260040161072390611de4565b60405180910390fd5b600960006007846040516107409190611aa0565b9081526040805160209281900383019020546001600160a01b031683529082019290925281016000908120555161079e9060079061077f908590611aa0565b908152604051908190036020019020546001600160a01b0316826112e6565b5050565b6060600380546107b19061220a565b80601f01602080910402602001604051908101604052809291908181526020018280546107dd9061220a565b801561082a5780601f106107ff5761010080835404028352916020019161082a565b820191906000526020600020905b81548152906001019060200180831161080d57829003601f168201915b5050505050905090565b6001600160a01b0381166000908152600860205260409020545b919050565b60006108676108606113ae565b84846113b2565b50600192915050565b600b5481565b60025490565b60086020526000908152604090205481565b60055461010090046001600160a01b031633146108bd5760405162461bcd60e51b815260040161072390611de4565b6005805460ff60a81b19169055565b6000600960006007846040516108e29190611aa0565b9081526040805160209281900383019020546001600160a01b0316835290820192909252016000205492915050565b600061091e848484611466565b6001600160a01b03841660009081526001602052604081208161093f6113ae565b6001600160a01b03166001600160a01b03168152602001908152602001600020549050828110156109825760405162461bcd60e51b815260040161072390611ef6565b6109968561098e6113ae565b8584036113b2565b506001949350505050565b600c5481565b60055461010090046001600160a01b031633146109d65760405162461bcd60e51b815260040161072390611de4565b600580546001600160a01b0390921661010002610100600160a81b0319909216919091179055565b600990565b6000610867610a106113ae565b848460016000610a1e6113ae565b6001600160a01b03908116825260208083019390935260409182016000908120918b1681529252902054610a5291906121af565b6113b2565b6000610a8a600783604051610a6c9190611aa0565b908152604051908190036020019020546001600160a01b0316610df2565b92915050565b600554600160a81b900460ff16610ab95760405162461bcd60e51b815260040161072390611fb4565b3360009081526006602052604090208054610b5b9190610ad89061220a565b80601f0160208091040260200160405190810160405280929190818152602001828054610b049061220a565b8015610b515780601f10610b2657610100808354040283529160200191610b51565b820191906000526020600020905b815481529060010190602001808311610b3457829003601f168201915b5050505050611207565b610b775760405162461bcd60e51b815260040161072390611e1b565b600c54811015610b995760405162461bcd60e51b815260040161072390611f3e565b610ba33382611590565b336000908152600660205260409081902090517fa0237080cf48d9e1fbb9ef1f82e33b11170d047b2b540a73b457d0916d53ee9991610be3918490611b81565b60405180910390a150565b60055461010090046001600160a01b03163314610c1d5760405162461bcd60e51b815260040161072390611de4565b610c25611682565b565b600554600160a81b900460ff1681565b60055461010090046001600160a01b031681565b60055461010090046001600160a01b03163314610c7a5760405162461bcd60e51b815260040161072390611de4565b6001600160a01b0381166000908152600860209081526040808320839055600682529091208351610cad9285019061177b565b5080600783604051610cbf9190611aa0565b90815260405190819003602001902080546001600160a01b03929092166001600160a01b03199092169190911790555050565b60055460ff1690565b3360009081526006602052604090208054610d1a9190610ad89061220a565b610d365760405162461bcd60e51b815260040161072390611ea0565b3360009081526009602052604090205415610d635760405162461bcd60e51b815260040161072390611fe3565b33600090815260066020526040908190209051600791610d8291611abc565b908152604080516020928190038301902080546001600160a01b031916905533600090815260069092528120610c25916117ff565b600554600160a81b900460ff16610de05760405162461bcd60e51b815260040161072390611fb4565b33600090815260086020526040812055565b6001600160a01b031660009081526020819052604090205490565b600554600160a81b900460ff16610e365760405162461bcd60e51b815260040161072390611fb4565b3360009081526006602052604090208054610e559190610ad89061220a565b610e715760405162461bcd60e51b815260040161072390611ecb565b600b54341015610e935760405162461bcd60e51b815260040161072390611d38565b3360009081526009602052604090205415610ec05760405162461bcd60e51b81526004016107239061209b565b336000908152600960205260409020349055565b60055461010090046001600160a01b03163314610f035760405162461bcd60e51b815260040161072390611de4565b6005805460ff60a81b1916600160a81b179055565b600a5481565b3360009081526009602052604090205490565b6060600480546107b19061220a565b60055461010090046001600160a01b03163314610f6f5760405162461bcd60e51b815260040161072390611de4565b600a55565b60008060016000610f836113ae565b6001600160a01b0390811682526020808301939093526040918201600090812091881681529252902054905082811015610fcf5760405162461bcd60e51b8152600401610723906120d2565b610fe3610fda6113ae565b858584036113b2565b5060019392505050565b6000610867610ffa6113ae565b8484611466565b60055461010090046001600160a01b031633146110305760405162461bcd60e51b815260040161072390611de4565b610c256116f4565b3360009081526006602052604090208054606091906107b19061220a565b60096020526000908152604090205481565b600554600160a81b900460ff166110915760405162461bcd60e51b815260040161072390611fb4565b33600090815260096020526040812055565b6005546040516001600160a01b0361010090920491909116904780156108fc02916000818181858888f193505050501580156110e3573d6000803e3d6000fd5b50565b600554600160a81b900460ff1661110f5760405162461bcd60e51b815260040161072390611fb4565b336000908152600660205260409020805461112e9190610ad89061220a565b1561114b5760405162461bcd60e51b815260040161072390611d6f565b600a5434101561116d5760405162461bcd60e51b815260040161072390611e73565b336000908152600860205260409020541561119a5760405162461bcd60e51b815260040161072390611cbf565b3360008181526008602052604090819020349055517ff3a2b9d2f578ed48c6766414c7478bfb7fd0c435622a42fffc66107ba7b4dcf391610be3918490611b3f565b6001600160a01b03918216600090815260016020908152604080832093909416825291909152205490565b6000806001600160a01b03166007836040516112239190611aa0565b908152604051908190036020019020546001600160a01b031614611248576001610a8a565b506000919050565b336000908152600660205260408120805461126a9061220a565b15905061127857600161127b565b60005b905090565b60006007826040516112929190611aa0565b908152604051908190036020019020546001600160a01b03169050919050565b60055461010090046001600160a01b031633146112e15760405162461bcd60e51b815260040161072390611de4565b600b55565b6001600160a01b03821661130c5760405162461bcd60e51b815260040161072390612117565b6113186000838361174b565b806002600082825461132a91906121af565b90915550506001600160a01b038216600090815260208190526040812080548392906113579084906121af565b90915550506040516001600160a01b038316906000907fddf252ad1be2c89b69c2b068fc378daa952ba7f163c4a11628f55a4df523b3ef9061139a908590612198565b60405180910390a361079e6000838361167d565b3390565b6001600160a01b0383166113d85760405162461bcd60e51b815260040161072390612057565b6001600160a01b0382166113fe5760405162461bcd60e51b815260040161072390611cf6565b6001600160a01b0380841660008181526001602090815260408083209487168084529490915290819020849055517f8c5be1e5ebec7d5bd14f71427d1e84f3dd0314c0f7b2291e5b200ac8c7c3b92590611459908590612198565b60405180910390a3505050565b6001600160a01b03831661148c5760405162461bcd60e51b815260040161072390612012565b6001600160a01b0382166114b25760405162461bcd60e51b815260040161072390611c0c565b6114bd83838361174b565b6001600160a01b038316600090815260208190526040902054818110156114f65760405162461bcd60e51b815260040161072390611d9e565b6001600160a01b0380851660009081526020819052604080822085850390559185168152908120805484929061152d9084906121af565b92505081905550826001600160a01b0316846001600160a01b03167fddf252ad1be2c89b69c2b068fc378daa952ba7f163c4a11628f55a4df523b3ef846040516115779190612198565b60405180910390a361158a84848461167d565b50505050565b6001600160a01b0382166115b65760405162461bcd60e51b815260040161072390611f73565b6115c28260008361174b565b6001600160a01b038216600090815260208190526040902054818110156115fb5760405162461bcd60e51b815260040161072390611c7d565b6001600160a01b038316600090815260208190526040812083830390556002805484929061162a9084906121c7565b90915550506040516000906001600160a01b038516907fddf252ad1be2c89b69c2b068fc378daa952ba7f163c4a11628f55a4df523b3ef9061166d908690612198565b60405180910390a361167d836000845b505050565b61168a610cf2565b156116a75760405162461bcd60e51b815260040161072390611e49565b6005805460ff191660011790557f62e78cea01bee320cd4e420270b5ea74000d11b0c9f74754ebdbfc544b05a2586116dd6113ae565b6040516116ea9190611b2b565b60405180910390a1565b6116fc610cf2565b6117185760405162461bcd60e51b815260040161072390611c4f565b6005805460ff191690557f5db9ee0a495bf2e6ff9c91a7834c1ba4fdd244a5e8aa4e537bd38aeae4b073aa6116dd6113ae565b61175683838361167d565b61175e610cf2565b1561167d5760405162461bcd60e51b81526004016107239061214e565b8280546117879061220a565b90600052602060002090601f0160209004810192826117a957600085556117ef565b82601f106117c257805160ff19168380011785556117ef565b828001600101855582156117ef579182015b828111156117ef5782518255916020019190600101906117d4565b506117fb929150611837565b5090565b50805461180b9061220a565b6000825580601f1061181d57506110e3565b601f0160209004906000526020600020908101906110e391905b5b808211156117fb5760008155600101611838565b80356001600160a01b038116811461084e57600080fd5b600082601f830112611873578081fd5b813567ffffffffffffffff8082111561188e5761188e61225b565b604051601f8301601f1916810160200182811182821017156118b2576118b261225b565b6040528281528483016020018610156118c9578384fd5b82602086016020830137918201602001929092529392505050565b6000602082840312156118f5578081fd5b6118fe8261184c565b9392505050565b60008060408385031215611917578081fd5b6119208361184c565b915061192e6020840161184c565b90509250929050565b60008060006060848603121561194b578081fd5b6119548461184c565b92506119626020850161184c565b9150604084013590509250925092565b60008060408385031215611984578182fd5b61198d8361184c565b946020939093013593505050565b6000602082840312156119ac578081fd5b813567ffffffffffffffff8111156119c2578182fd5b6119ce84828501611863565b949350505050565b600080604083850312156119e8578182fd5b823567ffffffffffffffff8111156119fe578283fd5b611a0a85828601611863565b92505061192e6020840161184c565b60008060408385031215611a2b578182fd5b823567ffffffffffffffff811115611a41578283fd5b611a4d85828601611863565b95602094909401359450505050565b600060208284031215611a6d578081fd5b5035919050565b60008151808452611a8c8160208601602086016121de565b601f01601f19169290920160200192915050565b60008251611ab28184602087016121de565b9190910192915050565b6000808354611aca8161220a565b60018281168015611ae25760018114611af357611b1f565b60ff19841687528287019450611b1f565b8786526020808720875b85811015611b165781548a820152908401908201611afd565b50505082870194505b50929695505050505050565b6001600160a01b0391909116815260200190565b6001600160a01b03831681526040602082018190526000906119ce90830184611a74565b901515815260200190565b6000602082526118fe6020830184611a74565b600060408252808454611b938161220a565b8060408601526060600180841660008114611bb55760018114611bc957611bf7565b60ff19851688840152608088019550611bf7565b8987526020808820885b86811015611bee5781548b8201870152908401908201611bd3565b8a018501975050505b50505050506020929092019290925292915050565b60208082526023908201527f45524332303a207472616e7366657220746f20746865207a65726f206164647260408201526265737360e81b606082015260800190565b60208082526014908201527314185d5cd8589b194e881b9bdd081c185d5cd95960621b604082015260600190565b60208082526022908201527f45524332303a206275726e20616d6f756e7420657863656564732062616c616e604082015261636560f01b606082015260800190565b6020808252601e908201527f416c7265616479206d61646520612062726964676520726571756573742e0000604082015260600190565b60208082526022908201527f45524332303a20617070726f766520746f20746865207a65726f206164647265604082015261737360f01b606082015260800190565b60208082526018908201527f496e76616c69642073656e646572206d696e74206665652e0000000000000000604082015260600190565b6020808252601590820152742ab9b2b91020b63932b0b23c90213934b233b2b21760591b604082015260600190565b60208082526026908201527f45524332303a207472616e7366657220616d6f756e7420657863656564732062604082015265616c616e636560d01b606082015260800190565b6020808252601b908201527f4d7573742062652063616c6c6564206279206f70657261746f722e0000000000604082015260600190565b6020808252601490820152732ab9b2b91034b9903737ba10213934b233b2b21760611b604082015260600190565b60208082526010908201526f14185d5cd8589b194e881c185d5cd95960821b604082015260600190565b60208082526013908201527224b73b30b634b210213934b233b2902332b29760691b604082015260600190565b6020808252601190820152702ab9b2b9102737ba10213934b233b2b21760791b604082015260600190565b6020808252601190820152702ab9b2b9103737ba10213934b233b2b21760791b604082015260600190565b60208082526028908201527f45524332303a207472616e7366657220616d6f756e74206578636565647320616040820152676c6c6f77616e636560c01b606082015260800190565b6020808252818101527f4275726e207472616e7366657220616d6f756e742077617320746f206c6f772e604082015260600190565b60208082526021908201527f45524332303a206275726e2066726f6d20746865207a65726f206164647265736040820152607360f81b606082015260800190565b6020808252601590820152742a343290213934b233b29034b99021b637b9b2b21760591b604082015260600190565b6020808252601590820152742832b73234b7339036b4b73a103932b8bab2b9ba1760591b604082015260600190565b60208082526025908201527f45524332303a207472616e736665722066726f6d20746865207a65726f206164604082015264647265737360d81b606082015260800190565b60208082526024908201527f45524332303a20617070726f76652066726f6d20746865207a65726f206164646040820152637265737360e01b606082015260800190565b6020808252601b908201527f416c7265616479206d6164652061206d696e7420726571756573740000000000604082015260600190565b60208082526025908201527f45524332303a2064656372656173656420616c6c6f77616e63652062656c6f77604082015264207a65726f60d81b606082015260800190565b6020808252601f908201527f45524332303a206d696e7420746f20746865207a65726f206164647265737300604082015260600190565b6020808252602a908201527f45524332305061757361626c653a20746f6b656e207472616e736665722077686040820152691a5b19481c185d5cd95960b21b606082015260800190565b90815260200190565b60ff91909116815260200190565b600082198211156121c2576121c2612245565b500190565b6000828210156121d9576121d9612245565b500390565b60005b838110156121f95781810151838201526020016121e1565b8381111561158a5750506000910152565b60028104600182168061221e57607f821691505b6020821081141561223f57634e487b7160e01b600052602260045260246000fd5b50919050565b634e487b7160e01b600052601160045260246000fd5b634e487b7160e01b600052604160045260246000fdfea2646970667358221220898b944b2d713ad38ecef6cf91163231ad268661b961d0ab9055c5a9be68342d64736f6c63430008000033",
    "sourcePath": "e:/CloutDAO/src/contracts/BridgedClout.sol",
    "compiler": {
        "name": "solc",
        "version": "0.8.0+commit.c7dfd78e"
    },
    "functionHashes": {
        "allowance(address,address)": "dd62ed3e",
        "approve(address,uint256)": "095ea7b3",
        "balanceOf(address)": "70a08231",
        "bcltToEthAddress(string)": "eb5249af",
        "bridgeFee()": "82b12dd7",
        "bridgeRequest(string)": "daddca38",
        "bridgeRequests(address)": "1a38f9b9",
        "bridgeState()": "4466ec2c",
        "bridgeUser(string,address)": "5b2e99c8",
        "burn(uint256)": "42966c68",
        "claimFees()": "d294f093",
        "closeBridge()": "1b89ee31",
        "decimals()": "313ce567",
        "decreaseAllowance(address,uint256)": "a457c2d7",
        "ethToBcltAddress()": "be7ef847",
        "getBalance(string)": "3a51d246",
        "increaseAllowance(address,uint256)": "39509351",
        "minimumBurn()": "2554a4a4",
        "mint(string,uint256)": "056b01ce",
        "mintFee()": "13966db5",
        "mintRequest()": "70ade062",
        "mintRequests(address)": "ca5e0e88",
        "name()": "06fdde03",
        "openBridge()": "71703a45",
        "operator()": "570ca735",
        "pauseContract()": "439766ce",
        "paused()": "5c975abb",
        "removeBridgeRequest()": "67181b32",
        "removeMintRequest()": "d1d73659",
        "setBridgeFee(uint256)": "998cdf83",
        "setMintFee(uint256)": "eddd0d9c",
        "symbol()": "95d89b41",
        "totalSupply()": "18160ddd",
        "transfer(address,uint256)": "a9059cbb",
        "transferFrom(address,address,uint256)": "23b872dd",
        "transferOperator(address)": "29605e77",
        "unbridgeUser()": "6213ee1d",
        "unpauseContract()": "b33712c5",
        "userBridged()": "e25e5211",
        "userBridged(string)": "e211d72d",
        "viewBridgeRequest(address)": "093be91f",
        "viewMintRequest()": "8db2d6fb",
        "viewMintRequest(string)": "22458193"
    },
    "gasEstimates": {
        "creation": {
            "codeDepositCost": "1774200",
            "executionCost": "infinite",
            "totalCost": "infinite"
        },
        "external": {
            "allowance(address,address)": "infinite",
            "approve(address,uint256)": "22696",
            "balanceOf(address)": "1363",
            "bcltToEthAddress(string)": "infinite",
            "bridgeFee()": "1073",
            "bridgeRequest(string)": "infinite",
            "bridgeRequests(address)": "1320",
            "bridgeState()": "1146",
            "bridgeUser(string,address)": "infinite",
            "burn(uint256)": "infinite",
            "claimFees()": "infinite",
            "closeBridge()": "21909",
            "decimals()": "330",
            "decreaseAllowance(address,uint256)": "infinite",
            "ethToBcltAddress()": "infinite",
            "getBalance(string)": "infinite",
            "increaseAllowance(address,uint256)": "infinite",
            "minimumBurn()": "1074",
            "mint(string,uint256)": "infinite",
            "mintFee()": "1163",
            "mintRequest()": "infinite",
            "mintRequests(address)": "1341",
            "name()": "infinite",
            "openBridge()": "21965",
            "operator()": "1192",
            "pauseContract()": "23903",
            "paused()": "1195",
            "removeBridgeRequest()": "6123",
            "removeMintRequest()": "6166",
            "setBridgeFee(uint256)": "21186",
            "setMintFee(uint256)": "21229",
            "symbol()": "infinite",
            "totalSupply()": "1074",
            "transfer(address,uint256)": "infinite",
            "transferFrom(address,address,uint256)": "infinite",
            "transferOperator(address)": "22101",
            "unbridgeUser()": "infinite",
            "unpauseContract()": "23872",
            "userBridged()": "1376",
            "userBridged(string)": "infinite",
            "viewBridgeRequest(address)": "infinite",
            "viewMintRequest()": "1163",
            "viewMintRequest(string)": "infinite"
        },
        "internal": {
            "_beforeTokenTransfer(address,address,uint256)": "infinite"
        }
    }
}