{
    "contractName": "DeSoDAO",
    "abi": [
        {
            "inputs": [
                {
                    "internalType": "address",
                    "name": "_operator",
                    "type": "address"
                },
                {
                    "internalType": "address[]",
                    "name": "_addresses",
                    "type": "address[]"
                },
                {
                    "internalType": "uint256[]",
                    "name": "_amounts",
                    "type": "uint256[]"
                }
            ],
            "stateMutability": "nonpayable",
            "type": "constructor"
        },
        {
            "anonymous": false,
            "inputs": [
                {
                    "indexed": true,
                    "internalType": "address",
                    "name": "owner",
                    "type": "address"
                },
                {
                    "indexed": true,
                    "internalType": "address",
                    "name": "spender",
                    "type": "address"
                },
                {
                    "indexed": false,
                    "internalType": "uint256",
                    "name": "value",
                    "type": "uint256"
                }
            ],
            "name": "Approval",
            "type": "event"
        },
        {
            "anonymous": false,
            "inputs": [
                {
                    "indexed": false,
                    "internalType": "address",
                    "name": "account",
                    "type": "address"
                }
            ],
            "name": "Paused",
            "type": "event"
        },
        {
            "anonymous": false,
            "inputs": [
                {
                    "indexed": true,
                    "internalType": "address",
                    "name": "from",
                    "type": "address"
                },
                {
                    "indexed": true,
                    "internalType": "address",
                    "name": "to",
                    "type": "address"
                },
                {
                    "indexed": false,
                    "internalType": "uint256",
                    "name": "value",
                    "type": "uint256"
                }
            ],
            "name": "Transfer",
            "type": "event"
        },
        {
            "anonymous": false,
            "inputs": [
                {
                    "indexed": false,
                    "internalType": "address",
                    "name": "account",
                    "type": "address"
                }
            ],
            "name": "Unpaused",
            "type": "event"
        },
        {
            "inputs": [
                {
                    "internalType": "address",
                    "name": "owner",
                    "type": "address"
                },
                {
                    "internalType": "address",
                    "name": "spender",
                    "type": "address"
                }
            ],
            "name": "allowance",
            "outputs": [
                {
                    "internalType": "uint256",
                    "name": "",
                    "type": "uint256"
                }
            ],
            "stateMutability": "view",
            "type": "function"
        },
        {
            "inputs": [
                {
                    "internalType": "address",
                    "name": "spender",
                    "type": "address"
                },
                {
                    "internalType": "uint256",
                    "name": "amount",
                    "type": "uint256"
                }
            ],
            "name": "approve",
            "outputs": [
                {
                    "internalType": "bool",
                    "name": "",
                    "type": "bool"
                }
            ],
            "stateMutability": "nonpayable",
            "type": "function"
        },
        {
            "inputs": [
                {
                    "internalType": "address",
                    "name": "account",
                    "type": "address"
                }
            ],
            "name": "balanceOf",
            "outputs": [
                {
                    "internalType": "uint256",
                    "name": "",
                    "type": "uint256"
                }
            ],
            "stateMutability": "view",
            "type": "function"
        },
        {
            "inputs": [],
            "name": "chef",
            "outputs": [
                {
                    "internalType": "address",
                    "name": "",
                    "type": "address"
                }
            ],
            "stateMutability": "view",
            "type": "function"
        },
        {
            "inputs": [],
            "name": "decimals",
            "outputs": [
                {
                    "internalType": "uint8",
                    "name": "",
                    "type": "uint8"
                }
            ],
            "stateMutability": "view",
            "type": "function"
        },
        {
            "inputs": [
                {
                    "internalType": "address",
                    "name": "spender",
                    "type": "address"
                },
                {
                    "internalType": "uint256",
                    "name": "subtractedValue",
                    "type": "uint256"
                }
            ],
            "name": "decreaseAllowance",
            "outputs": [
                {
                    "internalType": "bool",
                    "name": "",
                    "type": "bool"
                }
            ],
            "stateMutability": "nonpayable",
            "type": "function"
        },
        {
            "inputs": [
                {
                    "internalType": "address",
                    "name": "spender",
                    "type": "address"
                },
                {
                    "internalType": "uint256",
                    "name": "addedValue",
                    "type": "uint256"
                }
            ],
            "name": "increaseAllowance",
            "outputs": [
                {
                    "internalType": "bool",
                    "name": "",
                    "type": "bool"
                }
            ],
            "stateMutability": "nonpayable",
            "type": "function"
        },
        {
            "inputs": [
                {
                    "internalType": "address",
                    "name": "_to",
                    "type": "address"
                },
                {
                    "internalType": "uint256",
                    "name": "_amount",
                    "type": "uint256"
                }
            ],
            "name": "mint",
            "outputs": [],
            "stateMutability": "nonpayable",
            "type": "function"
        },
        {
            "inputs": [],
            "name": "name",
            "outputs": [
                {
                    "internalType": "string",
                    "name": "",
                    "type": "string"
                }
            ],
            "stateMutability": "view",
            "type": "function"
        },
        {
            "inputs": [],
            "name": "operator",
            "outputs": [
                {
                    "internalType": "address",
                    "name": "",
                    "type": "address"
                }
            ],
            "stateMutability": "view",
            "type": "function"
        },
        {
            "inputs": [],
            "name": "paused",
            "outputs": [
                {
                    "internalType": "bool",
                    "name": "",
                    "type": "bool"
                }
            ],
            "stateMutability": "view",
            "type": "function"
        },
        {
            "inputs": [
                {
                    "internalType": "address",
                    "name": "_chef",
                    "type": "address"
                }
            ],
            "name": "setChef",
            "outputs": [],
            "stateMutability": "nonpayable",
            "type": "function"
        },
        {
            "inputs": [],
            "name": "symbol",
            "outputs": [
                {
                    "internalType": "string",
                    "name": "",
                    "type": "string"
                }
            ],
            "stateMutability": "view",
            "type": "function"
        },
        {
            "inputs": [],
            "name": "totalSupply",
            "outputs": [
                {
                    "internalType": "uint256",
                    "name": "",
                    "type": "uint256"
                }
            ],
            "stateMutability": "view",
            "type": "function"
        },
        {
            "inputs": [
                {
                    "internalType": "address",
                    "name": "recipient",
                    "type": "address"
                },
                {
                    "internalType": "uint256",
                    "name": "amount",
                    "type": "uint256"
                }
            ],
            "name": "transfer",
            "outputs": [
                {
                    "internalType": "bool",
                    "name": "",
                    "type": "bool"
                }
            ],
            "stateMutability": "nonpayable",
            "type": "function"
        },
        {
            "inputs": [
                {
                    "internalType": "address",
                    "name": "sender",
                    "type": "address"
                },
                {
                    "internalType": "address",
                    "name": "recipient",
                    "type": "address"
                },
                {
                    "internalType": "uint256",
                    "name": "amount",
                    "type": "uint256"
                }
            ],
            "name": "transferFrom",
            "outputs": [
                {
                    "internalType": "bool",
                    "name": "",
                    "type": "bool"
                }
            ],
            "stateMutability": "nonpayable",
            "type": "function"
        }
    ],
    "bytecode": "60806040523480156200001157600080fd5b506040516200122938038062001229833981016040819052620000349162000371565b6040805180820182526007808252664465536f44414f60c81b60208084018281528551808701909652928552840152815191929162000076916003916200023a565b5080516200008c9060049060208401906200023a565b5050600580546001600160a81b0319166101006001600160a01b0387160217905550620000ba8282620000c3565b5050506200058e565b60005b82518161ffff16101562000153576200013e838261ffff1681518110620000fd57634e487b7160e01b600052603260045260246000fd5b6020026020010151838361ffff16815181106200012a57634e487b7160e01b600052603260045260246000fd5b60200260200101516200015860201b60201c565b806200014a816200053d565b915050620000c6565b505050565b6001600160a01b0382166200018a5760405162461bcd60e51b8152600401620001819062000453565b60405180910390fd5b620001986000838362000153565b8060026000828254620001ac9190620004e5565b90915550506001600160a01b03821660009081526020819052604081208054839290620001db908490620004e5565b90915550506040516001600160a01b038316906000907fddf252ad1be2c89b69c2b068fc378daa952ba7f163c4a11628f55a4df523b3ef90620002209085906200048a565b60405180910390a3620002366000838362000153565b5050565b828054620002489062000500565b90600052602060002090601f0160209004810192826200026c5760008555620002b7565b82601f106200028757805160ff1916838001178555620002b7565b82800160010185558215620002b7579182015b82811115620002b75782518255916020019190600101906200029a565b50620002c5929150620002c9565b5090565b5b80821115620002c55760008155600101620002ca565b80516001600160a01b0381168114620002f857600080fd5b919050565b600082601f8301126200030e578081fd5b81516020620003276200032183620004bf565b62000493565b828152818101908583018385028701840188101562000344578586fd5b855b85811015620003645781518452928401929084019060010162000346565b5090979650505050505050565b60008060006060848603121562000386578283fd5b6200039184620002e0565b602085810151919450906001600160401b0380821115620003b0578485fd5b818701915087601f830112620003c4578485fd5b8151620003d56200032182620004bf565b81815284810190848601868402860187018c1015620003f2578889fd5b8895505b838610156200041f576200040a81620002e0565b835260019590950194918601918601620003f6565b5060408a0151909750945050508083111562000439578384fd5b50506200044986828701620002fd565b9150509250925092565b6020808252601f908201527f45524332303a206d696e7420746f20746865207a65726f206164647265737300604082015260600190565b90815260200190565b6040518181016001600160401b0381118282101715620004b757620004b762000578565b604052919050565b60006001600160401b03821115620004db57620004db62000578565b5060209081020190565b60008219821115620004fb57620004fb62000562565b500190565b6002810460018216806200051557607f821691505b602082108114156200053757634e487b7160e01b600052602260045260246000fd5b50919050565b600061ffff8083168181141562000558576200055862000562565b6001019392505050565b634e487b7160e01b600052601160045260246000fd5b634e487b7160e01b600052604160045260246000fd5b610c8b806200059e6000396000f3fe608060405234801561001057600080fd5b50600436106101005760003560e01c806340c10f191161009757806395d89b411161006657806395d89b41146101f3578063a457c2d7146101fb578063a9059cbb1461020e578063dd62ed3e1461022157610100565b806340c10f19146101bd578063570ca735146101d05780635c975abb146101d857806370a08231146101e057610100565b80631fc8bc5d116100d35780631fc8bc5d1461016d57806323b872dd14610182578063313ce5671461019557806339509351146101aa57610100565b806304a89e571461010557806306fdde031461011a578063095ea7b31461013857806318160ddd14610158575b600080fd5b610118610113366004610867565b610234565b005b6101226102a3565b60405161012f919061093d565b60405180910390f35b61014b6101463660046108f5565b610335565b60405161012f9190610932565b610160610352565b60405161012f9190610bdf565b610175610358565b60405161012f919061091e565b61014b6101903660046108ba565b610367565b61019d6103f7565b60405161012f9190610be8565b61014b6101b83660046108f5565b6103fc565b6101186101cb3660046108f5565b610450565b6101756104a2565b61014b6104b6565b6101606101ee366004610867565b6104bf565b6101226104de565b61014b6102093660046108f5565b6104ed565b61014b61021c3660046108f5565b610566565b61016061022f366004610888565b61057a565b60055461010090046001600160a01b031633148061025c57506006546001600160a01b031633145b6102815760405162461bcd60e51b815260040161027890610a5b565b60405180910390fd5b600680546001600160a01b0319166001600160a01b0392909216919091179055565b6060600380546102b290610c1a565b80601f01602080910402602001604051908101604052809291908181526020018280546102de90610c1a565b801561032b5780601f106103005761010080835404028352916020019161032b565b820191906000526020600020905b81548152906001019060200180831161030e57829003601f168201915b5050505050905090565b60006103496103426105a5565b84846105a9565b50600192915050565b60025490565b6006546001600160a01b031681565b600061037484848461065d565b6001600160a01b0384166000908152600160205260408120816103956105a5565b6001600160a01b03166001600160a01b03168152602001908152602001600020549050828110156103d85760405162461bcd60e51b815260040161027890610a92565b6103ec856103e46105a5565b8584036105a9565b506001949350505050565b601290565b60006103496104096105a5565b8484600160006104176105a5565b6001600160a01b03908116825260208083019390935260409182016000908120918b168152925290205461044b9190610bf6565b6105a9565b60055461010090046001600160a01b031633148061047857506006546001600160a01b031633145b6104945760405162461bcd60e51b815260040161027890610a5b565b61049e8282610787565b5050565b60055461010090046001600160a01b031681565b60055460ff1690565b6001600160a01b0381166000908152602081905260409020545b919050565b6060600480546102b290610c1a565b600080600160006104fc6105a5565b6001600160a01b03908116825260208083019390935260409182016000908120918816815292529020549050828110156105485760405162461bcd60e51b815260040161027890610b63565b61055c6105536105a5565b858584036105a9565b5060019392505050565b60006103496105736105a5565b848461065d565b6001600160a01b03918216600090815260016020908152604080832093909416825291909152205490565b3390565b6001600160a01b0383166105cf5760405162461bcd60e51b815260040161027890610b1f565b6001600160a01b0382166105f55760405162461bcd60e51b8152600401610278906109d3565b6001600160a01b0380841660008181526001602090815260408083209487168084529490915290819020849055517f8c5be1e5ebec7d5bd14f71427d1e84f3dd0314c0f7b2291e5b200ac8c7c3b92590610650908590610bdf565b60405180910390a3505050565b6001600160a01b0383166106835760405162461bcd60e51b815260040161027890610ada565b6001600160a01b0382166106a95760405162461bcd60e51b815260040161027890610990565b6106b483838361084b565b6001600160a01b038316600090815260208190526040902054818110156106ed5760405162461bcd60e51b815260040161027890610a15565b6001600160a01b03808516600090815260208190526040808220858503905591851681529081208054849290610724908490610bf6565b92505081905550826001600160a01b0316846001600160a01b03167fddf252ad1be2c89b69c2b068fc378daa952ba7f163c4a11628f55a4df523b3ef8460405161076e9190610bdf565b60405180910390a361078184848461084b565b50505050565b6001600160a01b0382166107ad5760405162461bcd60e51b815260040161027890610ba8565b6107b96000838361084b565b80600260008282546107cb9190610bf6565b90915550506001600160a01b038216600090815260208190526040812080548392906107f8908490610bf6565b90915550506040516001600160a01b038316906000907fddf252ad1be2c89b69c2b068fc378daa952ba7f163c4a11628f55a4df523b3ef9061083b908590610bdf565b60405180910390a361049e600083835b505050565b80356001600160a01b03811681146104d957600080fd5b600060208284031215610878578081fd5b61088182610850565b9392505050565b6000806040838503121561089a578081fd5b6108a383610850565b91506108b160208401610850565b90509250929050565b6000806000606084860312156108ce578081fd5b6108d784610850565b92506108e560208501610850565b9150604084013590509250925092565b60008060408385031215610907578182fd5b61091083610850565b946020939093013593505050565b6001600160a01b0391909116815260200190565b901515815260200190565b6000602080835283518082850152825b818110156109695785810183015185820160400152820161094d565b8181111561097a5783604083870101525b50601f01601f1916929092016040019392505050565b60208082526023908201527f45524332303a207472616e7366657220746f20746865207a65726f206164647260408201526265737360e81b606082015260800190565b60208082526022908201527f45524332303a20617070726f766520746f20746865207a65726f206164647265604082015261737360f01b606082015260800190565b60208082526026908201527f45524332303a207472616e7366657220616d6f756e7420657863656564732062604082015265616c616e636560d01b606082015260800190565b6020808252601b908201527f4d7573742062652063616c6c6564206279206f70657261746f722e0000000000604082015260600190565b60208082526028908201527f45524332303a207472616e7366657220616d6f756e74206578636565647320616040820152676c6c6f77616e636560c01b606082015260800190565b60208082526025908201527f45524332303a207472616e736665722066726f6d20746865207a65726f206164604082015264647265737360d81b606082015260800190565b60208082526024908201527f45524332303a20617070726f76652066726f6d20746865207a65726f206164646040820152637265737360e01b606082015260800190565b60208082526025908201527f45524332303a2064656372656173656420616c6c6f77616e63652062656c6f77604082015264207a65726f60d81b606082015260800190565b6020808252601f908201527f45524332303a206d696e7420746f20746865207a65726f206164647265737300604082015260600190565b90815260200190565b60ff91909116815260200190565b60008219821115610c1557634e487b7160e01b81526011600452602481fd5b500190565b600281046001821680610c2e57607f821691505b60208210811415610c4f57634e487b7160e01b600052602260045260246000fd5b5091905056fea2646970667358221220fd0d50aabd689908519b835dea166873df23f6c50e57099d3e6a1b77915d1e9364736f6c63430008000033",
    "sourcePath": "e:/CloutDAO/src/contracts/DeSoDAO.sol",
    "compiler": {
        "name": "solc",
        "version": "0.8.0+commit.c7dfd78e"
    },
    "functionHashes": {
        "allowance(address,address)": "dd62ed3e",
        "approve(address,uint256)": "095ea7b3",
        "balanceOf(address)": "70a08231",
        "chef()": "1fc8bc5d",
        "decimals()": "313ce567",
        "decreaseAllowance(address,uint256)": "a457c2d7",
        "increaseAllowance(address,uint256)": "39509351",
        "mint(address,uint256)": "40c10f19",
        "name()": "06fdde03",
        "operator()": "570ca735",
        "paused()": "5c975abb",
        "setChef(address)": "04a89e57",
        "symbol()": "95d89b41",
        "totalSupply()": "18160ddd",
        "transfer(address,uint256)": "a9059cbb",
        "transferFrom(address,address,uint256)": "23b872dd"
    },
    "gasEstimates": {
        "creation": {
            "codeDepositCost": "642200",
            "executionCost": "infinite",
            "totalCost": "infinite"
        },
        "external": {
            "allowance(address,address)": "infinite",
            "approve(address,uint256)": "22651",
            "balanceOf(address)": "infinite",
            "chef()": "1093",
            "decimals()": "307",
            "decreaseAllowance(address,uint256)": "infinite",
            "increaseAllowance(address,uint256)": "infinite",
            "mint(address,uint256)": "infinite",
            "name()": "infinite",
            "operator()": "1126",
            "paused()": "1107",
            "setChef(address)": "22891",
            "symbol()": "infinite",
            "totalSupply()": "1118",
            "transfer(address,uint256)": "infinite",
            "transferFrom(address,address,uint256)": "infinite"
        },
        "internal": {
            "airDrop(address[] memory,uint256[] memory)": "infinite"
        }
    }
}