{
    "contractName": "MasterChef",
    "abi": [
        {
            "inputs": [
                {
                    "internalType": "contract CloutDAOToken",
                    "name": "_cloutDAO",
                    "type": "address"
                },
                {
                    "internalType": "address",
                    "name": "_devaddr",
                    "type": "address"
                },
                {
                    "internalType": "uint256",
                    "name": "_cloutPerBlock",
                    "type": "uint256"
                },
                {
                    "internalType": "uint256",
                    "name": "_startBlock",
                    "type": "uint256"
                },
                {
                    "internalType": "uint256",
                    "name": "_bonusEndBlock",
                    "type": "uint256"
                }
            ],
            "stateMutability": "nonpayable",
            "type": "constructor"
        },
        {
            "anonymous": false,
            "inputs": [
                {
                    "indexed": true,
                    "internalType": "address",
                    "name": "user",
                    "type": "address"
                },
                {
                    "indexed": true,
                    "internalType": "uint256",
                    "name": "pid",
                    "type": "uint256"
                },
                {
                    "indexed": false,
                    "internalType": "uint256",
                    "name": "amount",
                    "type": "uint256"
                }
            ],
            "name": "Deposit",
            "type": "event"
        },
        {
            "anonymous": false,
            "inputs": [
                {
                    "indexed": true,
                    "internalType": "address",
                    "name": "user",
                    "type": "address"
                },
                {
                    "indexed": true,
                    "internalType": "uint256",
                    "name": "pid",
                    "type": "uint256"
                },
                {
                    "indexed": false,
                    "internalType": "uint256",
                    "name": "amount",
                    "type": "uint256"
                }
            ],
            "name": "EmergencyWithdraw",
            "type": "event"
        },
        {
            "anonymous": false,
            "inputs": [
                {
                    "indexed": true,
                    "internalType": "address",
                    "name": "user",
                    "type": "address"
                },
                {
                    "indexed": true,
                    "internalType": "uint256",
                    "name": "pid",
                    "type": "uint256"
                },
                {
                    "indexed": false,
                    "internalType": "uint256",
                    "name": "pending",
                    "type": "uint256"
                }
            ],
            "name": "Harvest",
            "type": "event"
        },
        {
            "anonymous": false,
            "inputs": [
                {
                    "indexed": true,
                    "internalType": "address",
                    "name": "previousOwner",
                    "type": "address"
                },
                {
                    "indexed": true,
                    "internalType": "address",
                    "name": "newOwner",
                    "type": "address"
                }
            ],
            "name": "OwnershipTransferred",
            "type": "event"
        },
        {
            "anonymous": false,
            "inputs": [
                {
                    "indexed": true,
                    "internalType": "address",
                    "name": "user",
                    "type": "address"
                },
                {
                    "indexed": true,
                    "internalType": "uint256",
                    "name": "pid",
                    "type": "uint256"
                },
                {
                    "indexed": false,
                    "internalType": "uint256",
                    "name": "amount",
                    "type": "uint256"
                }
            ],
            "name": "Withdraw",
            "type": "event"
        },
        {
            "inputs": [],
            "name": "BONUS_MULTIPLIER",
            "outputs": [
                {
                    "internalType": "uint256",
                    "name": "",
                    "type": "uint256"
                }
            ],
            "stateMutability": "view",
            "type": "function"
        },
        {
            "inputs": [
                {
                    "internalType": "uint256",
                    "name": "_allocPoint",
                    "type": "uint256"
                },
                {
                    "internalType": "contract IERC20",
                    "name": "_lpToken",
                    "type": "address"
                },
                {
                    "internalType": "bool",
                    "name": "_withUpdate",
                    "type": "bool"
                }
            ],
            "name": "add",
            "outputs": [],
            "stateMutability": "nonpayable",
            "type": "function"
        },
        {
            "inputs": [],
            "name": "bonusEndBlock",
            "outputs": [
                {
                    "internalType": "uint256",
                    "name": "",
                    "type": "uint256"
                }
            ],
            "stateMutability": "view",
            "type": "function"
        },
        {
            "inputs": [],
            "name": "cloutDAO",
            "outputs": [
                {
                    "internalType": "contract CloutDAOToken",
                    "name": "",
                    "type": "address"
                }
            ],
            "stateMutability": "view",
            "type": "function"
        },
        {
            "inputs": [],
            "name": "cloutPerBlock",
            "outputs": [
                {
                    "internalType": "uint256",
                    "name": "",
                    "type": "uint256"
                }
            ],
            "stateMutability": "view",
            "type": "function"
        },
        {
            "inputs": [
                {
                    "internalType": "uint256",
                    "name": "_pid",
                    "type": "uint256"
                },
                {
                    "internalType": "uint256",
                    "name": "_amount",
                    "type": "uint256"
                }
            ],
            "name": "deposit",
            "outputs": [],
            "stateMutability": "nonpayable",
            "type": "function"
        },
        {
            "inputs": [
                {
                    "internalType": "address",
                    "name": "_devaddr",
                    "type": "address"
                }
            ],
            "name": "dev",
            "outputs": [],
            "stateMutability": "nonpayable",
            "type": "function"
        },
        {
            "inputs": [],
            "name": "devaddr",
            "outputs": [
                {
                    "internalType": "address",
                    "name": "",
                    "type": "address"
                }
            ],
            "stateMutability": "view",
            "type": "function"
        },
        {
            "inputs": [
                {
                    "internalType": "uint256",
                    "name": "_pid",
                    "type": "uint256"
                }
            ],
            "name": "emergencyWithdraw",
            "outputs": [],
            "stateMutability": "nonpayable",
            "type": "function"
        },
        {
            "inputs": [
                {
                    "internalType": "uint256",
                    "name": "_from",
                    "type": "uint256"
                },
                {
                    "internalType": "uint256",
                    "name": "_to",
                    "type": "uint256"
                }
            ],
            "name": "getMultiplier",
            "outputs": [
                {
                    "internalType": "uint256",
                    "name": "",
                    "type": "uint256"
                }
            ],
            "stateMutability": "view",
            "type": "function"
        },
        {
            "inputs": [
                {
                    "internalType": "uint256",
                    "name": "_pid",
                    "type": "uint256"
                }
            ],
            "name": "harvest",
            "outputs": [],
            "stateMutability": "nonpayable",
            "type": "function"
        },
        {
            "inputs": [],
            "name": "massUpdatePools",
            "outputs": [],
            "stateMutability": "nonpayable",
            "type": "function"
        },
        {
            "inputs": [],
            "name": "owner",
            "outputs": [
                {
                    "internalType": "address",
                    "name": "",
                    "type": "address"
                }
            ],
            "stateMutability": "view",
            "type": "function"
        },
        {
            "inputs": [
                {
                    "internalType": "uint256",
                    "name": "_pid",
                    "type": "uint256"
                },
                {
                    "internalType": "address",
                    "name": "_user",
                    "type": "address"
                }
            ],
            "name": "pendingClout",
            "outputs": [
                {
                    "internalType": "uint256",
                    "name": "",
                    "type": "uint256"
                }
            ],
            "stateMutability": "view",
            "type": "function"
        },
        {
            "inputs": [
                {
                    "internalType": "uint256",
                    "name": "",
                    "type": "uint256"
                }
            ],
            "name": "poolInfo",
            "outputs": [
                {
                    "internalType": "contract IERC20",
                    "name": "lpToken",
                    "type": "address"
                },
                {
                    "internalType": "uint256",
                    "name": "allocPoint",
                    "type": "uint256"
                },
                {
                    "internalType": "uint256",
                    "name": "lastRewardBlock",
                    "type": "uint256"
                },
                {
                    "internalType": "uint256",
                    "name": "accCloutPerShare",
                    "type": "uint256"
                }
            ],
            "stateMutability": "view",
            "type": "function"
        },
        {
            "inputs": [],
            "name": "poolLength",
            "outputs": [
                {
                    "internalType": "uint256",
                    "name": "",
                    "type": "uint256"
                }
            ],
            "stateMutability": "view",
            "type": "function"
        },
        {
            "inputs": [],
            "name": "renounceOwnership",
            "outputs": [],
            "stateMutability": "nonpayable",
            "type": "function"
        },
        {
            "inputs": [
                {
                    "internalType": "uint256",
                    "name": "_pid",
                    "type": "uint256"
                },
                {
                    "internalType": "uint256",
                    "name": "_allocPoint",
                    "type": "uint256"
                },
                {
                    "internalType": "bool",
                    "name": "_withUpdate",
                    "type": "bool"
                }
            ],
            "name": "set",
            "outputs": [],
            "stateMutability": "nonpayable",
            "type": "function"
        },
        {
            "inputs": [],
            "name": "startBlock",
            "outputs": [
                {
                    "internalType": "uint256",
                    "name": "",
                    "type": "uint256"
                }
            ],
            "stateMutability": "view",
            "type": "function"
        },
        {
            "inputs": [],
            "name": "totalAllocPoint",
            "outputs": [
                {
                    "internalType": "uint256",
                    "name": "",
                    "type": "uint256"
                }
            ],
            "stateMutability": "view",
            "type": "function"
        },
        {
            "inputs": [
                {
                    "internalType": "address",
                    "name": "newOwner",
                    "type": "address"
                }
            ],
            "name": "transferOwnership",
            "outputs": [],
            "stateMutability": "nonpayable",
            "type": "function"
        },
        {
            "inputs": [
                {
                    "internalType": "uint256",
                    "name": "_pid",
                    "type": "uint256"
                }
            ],
            "name": "updatePool",
            "outputs": [],
            "stateMutability": "nonpayable",
            "type": "function"
        },
        {
            "inputs": [
                {
                    "internalType": "uint256",
                    "name": "",
                    "type": "uint256"
                },
                {
                    "internalType": "address",
                    "name": "",
                    "type": "address"
                }
            ],
            "name": "userInfo",
            "outputs": [
                {
                    "internalType": "uint256",
                    "name": "amount",
                    "type": "uint256"
                },
                {
                    "internalType": "uint256",
                    "name": "rewardDebt",
                    "type": "uint256"
                }
            ],
            "stateMutability": "view",
            "type": "function"
        },
        {
            "inputs": [
                {
                    "internalType": "uint256",
                    "name": "_pid",
                    "type": "uint256"
                },
                {
                    "internalType": "uint256",
                    "name": "_amount",
                    "type": "uint256"
                }
            ],
            "name": "withdraw",
            "outputs": [],
            "stateMutability": "nonpayable",
            "type": "function"
        }
    ],
    "bytecode": "608060405260006007553480156200001657600080fd5b5060405162001991380380620019918339810160408190526200003991620000e0565b6200004d620000476200008c565b62000090565b600180546001600160a01b039687166001600160a01b031991821617909155600280549590961694169390931790935560045560035560085562000150565b3390565b600080546001600160a01b038381166001600160a01b0319831681178455604051919092169283917f8be0079c531659141344cd1fd0a4f28419497f9722a3daafe3b4186f6b6457e09190a35050565b600080600080600060a08688031215620000f8578081fd5b8551620001058162000137565b6020870151909550620001188162000137565b6040870151606088015160809098015196999198509695945092505050565b6001600160a01b03811681146200014d57600080fd5b50565b61183180620001606000396000f3fe608060405234801561001057600080fd5b50600436106101585760003560e01c8063715018a6116100c357806393f1a40b1161007c57806393f1a40b14610285578063d216ba6a146102a6578063d49e77cd146102ae578063ddc63262146102b6578063e2bbb158146102c9578063f2fde38b146102dc57610158565b8063715018a6146102325780637abdedc21461023a5780638aa285501461024f5780638d88a90e146102575780638da5cb5b1461026a5780638dbb1e3a1461027257610158565b8063441a3e7011610115578063441a3e70146101d657806348cd4cb1146101e957806351eb05a6146101f15780635312ea8e14610204578063630b5ba11461021757806364482f791461021f57610158565b8063081e3eda1461015d5780631526fe271461017b57806317caf6f11461019e5780631aed6553146101a65780631c850b25146101ae5780631eaaa045146101c1575b600080fd5b6101656102ef565b60405161017291906116f6565b60405180910390f35b61018e6101893660046113b1565b6102f5565b604051610172949392919061150c565b610165610339565b61016561033f565b6101656101bc3660046113e1565b610345565b6101d46101cf366004611410565b6104d7565b005b6101d46101e4366004611451565b610642565b61016561077e565b6101d46101ff3660046113b1565b610784565b6101d46102123660046113b1565b6109ad565b6101d4610a60565b6101d461022d366004611472565b610a8b565b6101d4610b6b565b610242610bb6565b60405161017291906114bb565b610165610bc5565b6101d4610265366004611379565b610bca565b610242610c16565b610165610280366004611451565b610c25565b6102986102933660046113e1565b610c8b565b6040516101729291906116ff565b610165610caf565b610242610cb5565b6101d46102c43660046113b1565b610cc4565b6101d46102d7366004611451565b610db4565b6101d46102ea366004611379565b610ec4565b60055490565b6005818154811061030557600080fd5b600091825260209091206004909102018054600182015460028301546003909301546001600160a01b039092169350919084565b60075481565b60035481565b6000806005848154811061036957634e487b7160e01b600052603260045260246000fd5b600091825260208083208784526006825260408085206001600160a01b038981168752935280852060049485029092016003810154815492516370a0823160e01b815291975092959294929391909116916370a08231916103cc913091016114bb565b60206040518083038186803b1580156103e457600080fd5b505afa1580156103f8573d6000803e3d6000fd5b505050506040513d601f19601f8201168201806040525081019061041c91906113c9565b905083600201544311801561043057508015155b1561049c576000610445856002015443610c25565b90506000610478600754610472886001015461046c60045487610f3290919063ffffffff16565b90610f32565b90610f45565b9050610497610490846104728464e8d4a51000610f32565b8590610f51565b935050505b6104ca83600101546104c464e8d4a51000610472868860000154610f3290919063ffffffff16565b90610f5d565b9450505050505b92915050565b6104df610f69565b6001600160a01b03166104f0610c16565b6001600160a01b03161461051f5760405162461bcd60e51b815260040161051690611614565b60405180910390fd5b801561052d5761052d610a60565b6000600854431161054057600854610542565b435b6007549091506105529085610f51565b600755604080516080810182526001600160a01b0394851681526020810195865290810191825260006060820181815260058054600181018255925291517f036b6384b5eca791c62761152d0c79bb0604c104a5fb6f4eb0703f3154bb3db0600490920291820180546001600160a01b031916919096161790945593517f036b6384b5eca791c62761152d0c79bb0604c104a5fb6f4eb0703f3154bb3db1840155517f036b6384b5eca791c62761152d0c79bb0604c104a5fb6f4eb0703f3154bb3db28301555090517f036b6384b5eca791c62761152d0c79bb0604c104a5fb6f4eb0703f3154bb3db390910155565b60006005838154811061066557634e487b7160e01b600052603260045260246000fd5b6000918252602080832086845260068252604080852033865290925292208054600490920290920192508311156106ae5760405162461bcd60e51b815260040161051690611680565b6106b784610784565b60006106e582600101546104c464e8d4a5100061047287600301548760000154610f3290919063ffffffff16565b90506106f13382610f6d565b81546106fd9085610f5d565b808355600384015461071a9164e8d4a51000916104729190610f32565b60018301558254610735906001600160a01b0316338661110d565b84336001600160a01b03167ff279e6a1f5e320cca91135676d9cb6e44ca8a08c0b88342bcdb1144f6511b5688660405161076f91906116f6565b60405180910390a35050505050565b60085481565b6000600582815481106107a757634e487b7160e01b600052603260045260246000fd5b90600052602060002090600402019050806002015443116107c857506109aa565b80546040516370a0823160e01b81526000916001600160a01b0316906370a08231906107f89030906004016114bb565b60206040518083038186803b15801561081057600080fd5b505afa158015610824573d6000803e3d6000fd5b505050506040513d601f19601f8201168201806040525081019061084891906113c9565b90508061085c5750436002909101556109aa565b600061086c836002015443610c25565b90506000610893600754610472866001015461046c60045487610f3290919063ffffffff16565b6001546002549192506001600160a01b03908116916340c10f1991166108ba84600a610f45565b6040518363ffffffff1660e01b81526004016108d79291906114f3565b600060405180830381600087803b1580156108f157600080fd5b505af1158015610905573d6000803e3d6000fd5b50506001546040516340c10f1960e01b81526001600160a01b0390911692506340c10f19915061093b90309085906004016114f3565b600060405180830381600087803b15801561095557600080fd5b505af1158015610969573d6000803e3d6000fd5b5050505061099761098c8461047264e8d4a5100085610f3290919063ffffffff16565b600386015490610f51565b6003850155505043600290920191909155505b50565b6000600582815481106109d057634e487b7160e01b600052603260045260246000fd5b60009182526020808320858452600682526040808520338087529352909320805460049093029093018054909450610a15926001600160a01b0391909116919061110d565b8054604051849133917fbb757047c2b5f3974fe26b7c10f732e7bce710b0952a71082702781e62ae059591610a49916116f6565b60405180910390a360008082556001909101555050565b60055460005b81811015610a8757610a7781610784565b610a80816117a7565b9050610a66565b5050565b610a93610f69565b6001600160a01b0316610aa4610c16565b6001600160a01b031614610aca5760405162461bcd60e51b815260040161051690611614565b8015610ad857610ad8610a60565b610b2982610b2360058681548110610b0057634e487b7160e01b600052603260045260246000fd5b906000526020600020906004020160010154600754610f5d90919063ffffffff16565b90610f51565b6007819055508160058481548110610b5157634e487b7160e01b600052603260045260246000fd5b906000526020600020906004020160010181905550505050565b610b73610f69565b6001600160a01b0316610b84610c16565b6001600160a01b031614610baa5760405162461bcd60e51b815260040161051690611614565b610bb46000611163565b565b6001546001600160a01b031681565b600a81565b6002546001600160a01b03163314610bf45760405162461bcd60e51b8152600401610516906115f1565b600280546001600160a01b0319166001600160a01b0392909216919091179055565b6000546001600160a01b031690565b60006003548211610c4657610c3f600a61046c8486610f5d565b90506104d1565b6003548310610c5957610c3f8284610f5d565b610c3f610c7160035484610f5d90919063ffffffff16565b610b23600a61046c87600354610f5d90919063ffffffff16565b60066020908152600092835260408084209091529082529020805460019091015482565b60045481565b6002546001600160a01b031681565b600060058281548110610ce757634e487b7160e01b600052603260045260246000fd5b60009182526020808320858452600682526040808520338652909252922060049091029091019150610d1883610784565b6000610d4682600101546104c464e8d4a5100061047287600301548760000154610f3290919063ffffffff16565b9050610d523382610f6d565b60038301548254610d6d9164e8d4a510009161047291610f32565b6001830155604051849033907f71bab65ced2e5750775a0613be067df48ef06cf92a496ebf7663ae066092495490610da69085906116f6565b60405180910390a350505050565b600060058381548110610dd757634e487b7160e01b600052603260045260246000fd5b60009182526020808320868452600682526040808520338652909252922060049091029091019150610e0884610784565b805415610e4b576000610e3d82600101546104c464e8d4a5100061047287600301548760000154610f3290919063ffffffff16565b9050610e493382610f6d565b505b8154610e62906001600160a01b03163330866111b3565b8054610e6e9084610f51565b8082556003830154610e8b9164e8d4a51000916104729190610f32565b6001820155604051849033907f90890809c654f11d6e72a28fa60149770a0d11ec6c92319d6ceb2bb0a4ea1a1590610da69087906116f6565b610ecc610f69565b6001600160a01b0316610edd610c16565b6001600160a01b031614610f035760405162461bcd60e51b815260040161051690611614565b6001600160a01b038116610f295760405162461bcd60e51b815260040161051690611565565b6109aa81611163565b6000610f3e8284611745565b9392505050565b6000610f3e8284611725565b6000610f3e828461170d565b6000610f3e8284611764565b3390565b6001546040516370a0823160e01b81526000916001600160a01b0316906370a0823190610f9e9030906004016114bb565b60206040518083038186803b158015610fb657600080fd5b505afa158015610fca573d6000803e3d6000fd5b505050506040513d601f19601f82011682018060405250810190610fee91906113c9565b9050808211156110825760015460405163a9059cbb60e01b81526001600160a01b039091169063a9059cbb9061102a90869085906004016114f3565b602060405180830381600087803b15801561104457600080fd5b505af1158015611058573d6000803e3d6000fd5b505050506040513d601f19601f8201168201806040525081019061107c9190611395565b50611108565b60015460405163a9059cbb60e01b81526001600160a01b039091169063a9059cbb906110b490869086906004016114f3565b602060405180830381600087803b1580156110ce57600080fd5b505af11580156110e2573d6000803e3d6000fd5b505050506040513d601f19601f820116820180604052508101906111069190611395565b505b505050565b6111088363a9059cbb60e01b848460405160240161112c9291906114f3565b60408051601f198184030181529190526020810180516001600160e01b03166001600160e01b0319909316929092179091526111d4565b600080546001600160a01b038381166001600160a01b0319831681178455604051919092169283917f8be0079c531659141344cd1fd0a4f28419497f9722a3daafe3b4186f6b6457e09190a35050565b611106846323b872dd60e01b85858560405160240161112c939291906114cf565b6000611229826040518060400160405280602081526020017f5361666545524332303a206c6f772d6c6576656c2063616c6c206661696c6564815250856001600160a01b03166112639092919063ffffffff16565b80519091501561110857808060200190518101906112479190611395565b6111085760405162461bcd60e51b8152600401610516906116ac565b6060611272848460008561127a565b949350505050565b60608247101561129c5760405162461bcd60e51b8152600401610516906115ab565b6112a58561133a565b6112c15760405162461bcd60e51b815260040161051690611649565b600080866001600160a01b031685876040516112dd919061149f565b60006040518083038185875af1925050503d806000811461131a576040519150601f19603f3d011682016040523d82523d6000602084013e61131f565b606091505b509150915061132f828286611340565b979650505050505050565b3b151590565b6060831561134f575081610f3e565b82511561135f5782518084602001fd5b8160405162461bcd60e51b81526004016105169190611532565b60006020828403121561138a578081fd5b8135610f3e816117d8565b6000602082840312156113a6578081fd5b8151610f3e816117ed565b6000602082840312156113c2578081fd5b5035919050565b6000602082840312156113da578081fd5b5051919050565b600080604083850312156113f3578081fd5b823591506020830135611405816117d8565b809150509250929050565b600080600060608486031215611424578081fd5b833592506020840135611436816117d8565b91506040840135611446816117ed565b809150509250925092565b60008060408385031215611463578182fd5b50508035926020909101359150565b600080600060608486031215611486578283fd5b83359250602084013591506040840135611446816117ed565b600082516114b181846020870161177b565b9190910192915050565b6001600160a01b0391909116815260200190565b6001600160a01b039384168152919092166020820152604081019190915260600190565b6001600160a01b03929092168252602082015260400190565b6001600160a01b0394909416845260208401929092526040830152606082015260800190565b600060208252825180602084015261155181604085016020870161177b565b601f01601f19169190910160400192915050565b60208082526026908201527f4f776e61626c653a206e6577206f776e657220697320746865207a65726f206160408201526564647265737360d01b606082015260800190565b60208082526026908201527f416464726573733a20696e73756666696369656e742062616c616e636520666f6040820152651c8818d85b1b60d21b606082015260800190565b6020808252600990820152686465763a207775743f60b81b604082015260600190565b6020808252818101527f4f776e61626c653a2063616c6c6572206973206e6f7420746865206f776e6572604082015260600190565b6020808252601d908201527f416464726573733a2063616c6c20746f206e6f6e2d636f6e7472616374000000604082015260600190565b6020808252601290820152711dda5d1a191c985dce881b9bdd0819dbdbd960721b604082015260600190565b6020808252602a908201527f5361666545524332303a204552433230206f7065726174696f6e20646964206e6040820152691bdd081cdd58d8d9595960b21b606082015260800190565b90815260200190565b918252602082015260400190565b60008219821115611720576117206117c2565b500190565b60008261174057634e487b7160e01b81526012600452602481fd5b500490565b600081600019048311821515161561175f5761175f6117c2565b500290565b600082821015611776576117766117c2565b500390565b60005b8381101561179657818101518382015260200161177e565b838111156111065750506000910152565b60006000198214156117bb576117bb6117c2565b5060010190565b634e487b7160e01b600052601160045260246000fd5b6001600160a01b03811681146109aa57600080fd5b80151581146109aa57600080fdfea26469706673582212200c07dc932bfa514191ca511e4c0b6e4c82ed4f091c479220e722d877eacc70cf64736f6c63430008000033",
    "sourcePath": "e:/CloutDAO/src/Contracts/MasterChef.sol",
    "compiler": {
        "name": "solc",
        "version": "0.8.0+commit.c7dfd78e"
    },
    "functionHashes": {
        "BONUS_MULTIPLIER()": "8aa28550",
        "add(uint256,address,bool)": "1eaaa045",
        "bonusEndBlock()": "1aed6553",
        "cloutDAO()": "7abdedc2",
        "cloutPerBlock()": "d216ba6a",
        "deposit(uint256,uint256)": "e2bbb158",
        "dev(address)": "8d88a90e",
        "devaddr()": "d49e77cd",
        "emergencyWithdraw(uint256)": "5312ea8e",
        "getMultiplier(uint256,uint256)": "8dbb1e3a",
        "harvest(uint256)": "ddc63262",
        "massUpdatePools()": "630b5ba1",
        "owner()": "8da5cb5b",
        "pendingClout(uint256,address)": "1c850b25",
        "poolInfo(uint256)": "1526fe27",
        "poolLength()": "081e3eda",
        "renounceOwnership()": "715018a6",
        "set(uint256,uint256,bool)": "64482f79",
        "startBlock()": "48cd4cb1",
        "totalAllocPoint()": "17caf6f1",
        "transferOwnership(address)": "f2fde38b",
        "updatePool(uint256)": "51eb05a6",
        "userInfo(uint256,address)": "93f1a40b",
        "withdraw(uint256,uint256)": "441a3e70"
    },
    "gasEstimates": {
        "creation": {
            "codeDepositCost": "1238600",
            "executionCost": "infinite",
            "totalCost": "infinite"
        },
        "external": {
            "BONUS_MULTIPLIER()": "295",
            "add(uint256,address,bool)": "infinite",
            "bonusEndBlock()": "1118",
            "cloutDAO()": "1115",
            "cloutPerBlock()": "1072",
            "deposit(uint256,uint256)": "infinite",
            "dev(address)": "22094",
            "devaddr()": "1136",
            "emergencyWithdraw(uint256)": "infinite",
            "getMultiplier(uint256,uint256)": "infinite",
            "harvest(uint256)": "infinite",
            "massUpdatePools()": "infinite",
            "owner()": "1181",
            "pendingClout(uint256,address)": "infinite",
            "poolInfo(uint256)": "4606",
            "poolLength()": "1052",
            "renounceOwnership()": "23527",
            "set(uint256,uint256,bool)": "infinite",
            "startBlock()": "1073",
            "totalAllocPoint()": "1096",
            "transferOwnership(address)": "infinite",
            "updatePool(uint256)": "infinite",
            "userInfo(uint256,address)": "2204",
            "withdraw(uint256,uint256)": "infinite"
        },
        "internal": {
            "safeCloutTransfer(address,uint256)": "infinite"
        }
    }
}